{"contracts/ethereum/EthereumLightClient.sol":{"EthereumLightClient":{"abi":[{"inputs":[{"internalType":"address","name":"placeholderVerifier","type":"address"},{"internalType":"address","name":"step","type":"address"},{"internalType":"address","name":"rotate","type":"address"},{"internalType":"bytes32","name":"genesisValidatorsRoot","type":"bytes32"},{"internalType":"uint256","name":"genesisTime","type":"uint256"},{"internalType":"uint256","name":"secondsPerSlot","type":"uint256"},{"internalType":"uint256","name":"slotsPerPeriod","type":"uint256"},{"internalType":"uint256","name":"syncCommitteePeriod","type":"uint256"},{"internalType":"bytes32","name":"syncCommitteePoseidon","type":"bytes32"},{"internalType":"uint32","name":"sourceChainId","type":"uint32"},{"internalType":"uint16","name":"finalityThreshold","type":"uint16"},{"internalType":"address","name":"_layerZeroEndpoint","type":"address"}],"stateMutability":"nonpayable","type":"constructor"},{"anonymous":false,"inputs":[{"indexed":true,"internalType":"uint256","name":"slot","type":"uint256"},{"indexed":true,"internalType":"bytes32","name":"root","type":"bytes32"}],"name":"HeadUpdate","type":"event"},{"anonymous":false,"inputs":[{"indexed":false,"internalType":"address","name":"oldLayerZeroEndpoint","type":"address"},{"indexed":false,"internalType":"address","name":"newLayerZeroEndpoint","type":"address"}],"name":"ModLayerZeroEndpoint","type":"event"},{"anonymous":false,"inputs":[{"indexed":false,"internalType":"uint16","name":"dstChainId","type":"uint16"},{"indexed":false,"internalType":"uint16","name":"proofType","type":"uint16"},{"indexed":false,"internalType":"uint256","name":"blockConfirmations","type":"uint256"},{"indexed":false,"internalType":"address","name":"ua","type":"address"},{"indexed":false,"internalType":"uint256","name":"fee","type":"uint256"}],"name":"OracleNotified","type":"event"},{"anonymous":false,"inputs":[{"indexed":true,"internalType":"address","name":"previousOwner","type":"address"},{"indexed":true,"internalType":"address","name":"newOwner","type":"address"}],"name":"OwnershipTransferred","type":"event"},{"anonymous":false,"inputs":[{"indexed":true,"internalType":"uint256","name":"period","type":"uint256"},{"indexed":true,"internalType":"bytes32","name":"root","type":"bytes32"}],"name":"SyncCommitteeUpdate","type":"event"},{"anonymous":false,"inputs":[{"indexed":false,"internalType":"address","name":"receiver","type":"address"},{"indexed":false,"internalType":"uint256","name":"amount","type":"uint256"}],"name":"WithdrawFee","type":"event"},{"inputs":[],"name":"FINALITY_THRESHOLD","outputs":[{"internalType":"uint16","name":"","type":"uint16"}],"stateMutability":"view","type":"function"},{"inputs":[],"name":"GENESIS_TIME","outputs":[{"internalType":"uint256","name":"","type":"uint256"}],"stateMutability":"view","type":"function"},{"inputs":[],"name":"GENESIS_VALIDATORS_ROOT","outputs":[{"internalType":"bytes32","name":"","type":"bytes32"}],"stateMutability":"view","type":"function"},{"inputs":[],"name":"SECONDS_PER_SLOT","outputs":[{"internalType":"uint256","name":"","type":"uint256"}],"stateMutability":"view","type":"function"},{"inputs":[],"name":"SLOTS_PER_PERIOD","outputs":[{"internalType":"uint256","name":"","type":"uint256"}],"stateMutability":"view","type":"function"},{"inputs":[],"name":"SOURCE_CHAIN_ID","outputs":[{"internalType":"uint32","name":"","type":"uint32"}],"stateMutability":"view","type":"function"},{"inputs":[{"internalType":"uint16","name":"_dstChainId","type":"uint16"},{"internalType":"uint16","name":"_proofType","type":"uint16"},{"internalType":"uint64","name":"_outboundBlockConfirmation","type":"uint64"},{"internalType":"address","name":"_userApplication","type":"address"}],"name":"assignJob","outputs":[{"internalType":"uint256","name":"price","type":"uint256"}],"stateMutability":"nonpayable","type":"function"},{"inputs":[],"name":"consistent","outputs":[{"internalType":"bool","name":"","type":"bool"}],"stateMutability":"view","type":"function"},{"inputs":[{"internalType":"uint16","name":"_dstChainId","type":"uint16"},{"internalType":"uint16","name":"_proofType","type":"uint16"},{"internalType":"uint64","name":"_outboundBlockConfirmation","type":"uint64"},{"internalType":"address","name":"_userApplication","type":"address"}],"name":"getFee","outputs":[{"internalType":"uint256","name":"price","type":"uint256"}],"stateMutability":"view","type":"function"},{"inputs":[],"name":"head","outputs":[{"internalType":"uint256","name":"","type":"uint256"}],"stateMutability":"view","type":"function"},{"inputs":[{"internalType":"uint256","name":"","type":"uint256"}],"name":"headers","outputs":[{"internalType":"bytes32","name":"","type":"bytes32"}],"stateMutability":"view","type":"function"},{"inputs":[],"name":"layerZeroEndpoint","outputs":[{"internalType":"contract ILayerZeroEndpoint","name":"","type":"address"}],"stateMutability":"view","type":"function"},{"inputs":[],"name":"owner","outputs":[{"internalType":"address","name":"","type":"address"}],"stateMutability":"view","type":"function"},{"inputs":[],"name":"renounceOwnership","outputs":[],"stateMutability":"nonpayable","type":"function"},{"inputs":[{"components":[{"components":[{"internalType":"uint256","name":"attestedSlot","type":"uint256"},{"internalType":"uint256","name":"finalizedSlot","type":"uint256"},{"internalType":"uint256","name":"participation","type":"uint256"},{"internalType":"bytes32","name":"finalizedHeaderRoot","type":"bytes32"},{"internalType":"bytes32","name":"executionStateRoot","type":"bytes32"},{"components":[{"internalType":"bytes","name":"blob","type":"bytes"},{"internalType":"uint256[]","name":"init_params","type":"uint256[]"},{"internalType":"int256[][]","name":"columns_rotations","type":"int256[][]"}],"internalType":"struct PlaceholderProof","name":"proof","type":"tuple"}],"internalType":"struct LightClientStep","name":"step","type":"tuple"},{"internalType":"bytes32","name":"syncCommitteeSSZ","type":"bytes32"},{"internalType":"bytes32","name":"syncCommitteePoseidon","type":"bytes32"},{"components":[{"internalType":"bytes","name":"blob","type":"bytes"},{"internalType":"uint256[]","name":"init_params","type":"uint256[]"},{"internalType":"int256[][]","name":"columns_rotations","type":"int256[][]"}],"internalType":"struct PlaceholderProof","name":"proof","type":"tuple"}],"internalType":"struct LightClientRotate","name":"update","type":"tuple"}],"name":"rotate","outputs":[],"stateMutability":"nonpayable","type":"function"},{"inputs":[{"internalType":"address","name":"_layerZeroEndpoint","type":"address"}],"name":"setLayerZeroEndpoint","outputs":[],"stateMutability":"nonpayable","type":"function"},{"inputs":[{"internalType":"address","name":"gateArgument","type":"address"}],"name":"setRotateGate","outputs":[],"stateMutability":"nonpayable","type":"function"},{"inputs":[{"internalType":"address","name":"gateArgument","type":"address"}],"name":"setStepGate","outputs":[],"stateMutability":"nonpayable","type":"function"},{"inputs":[{"internalType":"address","name":"v","type":"address"}],"name":"setVerifier","outputs":[],"stateMutability":"nonpayable","type":"function"},{"inputs":[{"internalType":"uint256","name":"","type":"uint256"}],"name":"stateRoots","outputs":[{"internalType":"bytes32","name":"","type":"bytes32"}],"stateMutability":"view","type":"function"},{"inputs":[{"components":[{"internalType":"uint256","name":"attestedSlot","type":"uint256"},{"internalType":"uint256","name":"finalizedSlot","type":"uint256"},{"internalType":"uint256","name":"participation","type":"uint256"},{"internalType":"bytes32","name":"finalizedHeaderRoot","type":"bytes32"},{"internalType":"bytes32","name":"executionStateRoot","type":"bytes32"},{"components":[{"internalType":"bytes","name":"blob","type":"bytes"},{"internalType":"uint256[]","name":"init_params","type":"uint256[]"},{"internalType":"int256[][]","name":"columns_rotations","type":"int256[][]"}],"internalType":"struct PlaceholderProof","name":"proof","type":"tuple"}],"internalType":"struct LightClientStep","name":"update","type":"tuple"},{"internalType":"address","name":"_userApplication","type":"address"},{"internalType":"uint16","name":"_sourceChainId","type":"uint16"}],"name":"step","outputs":[],"stateMutability":"nonpayable","type":"function"},{"inputs":[{"internalType":"uint256","name":"","type":"uint256"}],"name":"syncCommitteePoseidons","outputs":[{"internalType":"bytes32","name":"","type":"bytes32"}],"stateMutability":"view","type":"function"},{"inputs":[{"internalType":"uint256","name":"","type":"uint256"}],"name":"timestamps","outputs":[{"internalType":"uint256","name":"","type":"uint256"}],"stateMutability":"view","type":"function"},{"inputs":[{"internalType":"address","name":"newOwner","type":"address"}],"name":"transferOwnership","outputs":[],"stateMutability":"nonpayable","type":"function"},{"inputs":[{"internalType":"address payable","name":"_to","type":"address"},{"internalType":"uint256","name":"_amount","type":"uint256"}],"name":"withdrawFee","outputs":[],"stateMutability":"nonpayable","type":"function"}],"devdoc":{"kind":"dev","methods":{"owner()":{"details":"Returns the address of the current owner."},"renounceOwnership()":{"details":"Leaves the contract without owner. It will not be possible to call `onlyOwner` functions. Can only be called by the current owner. NOTE: Renouncing ownership will leave the contract without an owner, thereby disabling any functionality that is only available to the owner."},"rotate(((uint256,uint256,uint256,bytes32,bytes32,(bytes,uint256[],int256[][])),bytes32,bytes32,(bytes,uint256[],int256[][])))":{"details":"A commitment to the the next sync committeee is signed by the current sync committee."},"step((uint256,uint256,uint256,bytes32,bytes32,(bytes,uint256[],int256[][])),address,uint16)":{"details":"The conditions for updating the head of the light client involve checking:      1) Enough signatures from the current sync committee for n=512      2) A valid finality proof      3) A valid execution state root proof"},"transferOwnership(address)":{"details":"Transfers ownership of the contract to a new account (`newOwner`). Can only be called by the current owner."}},"version":1},"evm":{"bytecode":{"linkReferences":{},"object":"6101406040526003805460ff60a01b1916600160a01b17905560006004553480156200002a57600080fd5b5060405162001ec938038062001ec98339810160408190526200004d91620001fd565b6200005833620000fb565b600180546001600160a01b03808f166001600160a01b031992831617909255600380548e841690831617905560028054928d1692909116919091179055608089905260a088905260c087905260e086905263ffffffff83166101005261ffff821661012052620000c985856200014b565b600580546001600160a01b0319166001600160a01b039290921691909117905550620002c69950505050505050505050565b600080546001600160a01b038381166001600160a01b0319831681178455604051919092169283917f8be0079c531659141344cd1fd0a4f28419497f9722a3daafe3b4186f6b6457e09190a35050565b600082815260096020526040902054158015906200017757506000828152600960205260409020548114155b156200018e5750506003805460ff60a01b19169055565b60008281526009602052604080822083905551829184917f783ee45e8820a8249b1456ff4a715f3bd483b1a59bdc7a49bbc316bbd67a4e2f9190a35050565b80516001600160a01b0381168114620001e557600080fd5b919050565b805161ffff81168114620001e557600080fd5b6000806000806000806000806000806000806101808d8f0312156200022157600080fd5b6200022c8d620001cd565b9b506200023c60208e01620001cd565b9a506200024c60408e01620001cd565b995060608d0151985060808d0151975060a08d0151965060c08d0151955060e08d015194506101008d015193506101208d015163ffffffff811681146200029257600080fd5b9250620002a36101408e01620001ea565b9150620002b46101608e01620001cd565b90509295989b509295989b509295989b565b60805160a05160c05160e0516101005161012051611b97620003326000396000818161039e0152610a9b015260006102bb0152600081816101c20152610ca501526000818161021b0152610ac90152600081816103eb0152610aed015260006103440152611b976000f3fe608060405234801561001057600080fd5b50600436106101735760003560e01c80638bc33af3116100de578063c5e193cd11610097578063f288246111610071578063f2882461146103e6578063f2fde38b1461040d578063f4cac30d14610420578063fd9be5221461044057600080fd5b8063c5e193cd14610386578063da4b05e714610399578063deb0b3c6146103d357600080fd5b80638bc33af3146102f25780638da5cb5b146103125780638f7dcfa31461032357806395b9783c1461032c578063a8769acb1461033f578063b34711ab1461036657600080fd5b80634f96cf28116101305780634f96cf28146102505780635437988d146102635780635553fb8e1461027657806356f90d791461028e578063715018a6146102ae57806374be2150146102b657600080fd5b806307968db114610178578063205ca226146101a85780632073ee70146101bd5780632bcccca5146101f2578063304b9071146102165780634a7324081461023d575b600080fd5b60055461018b906001600160a01b031681565b6040516001600160a01b0390911681526020015b60405180910390f35b6101bb6101b6366004611401565b610453565b005b6101e47f000000000000000000000000000000000000000000000000000000000000000081565b60405190815260200161019f565b60035461020690600160a01b900460ff1681565b604051901515815260200161019f565b6101e47f000000000000000000000000000000000000000000000000000000000000000081565b6101bb61024b366004611466565b6106a1565b6101bb61025e366004611466565b6106cb565b6101bb610271366004611466565b6106f5565b6101e461028436600461148a565b50607b9392505050565b6101e461029c3660046114ef565b60066020526000908152604090205481565b6101bb61071f565b6102dd7f000000000000000000000000000000000000000000000000000000000000000081565b60405163ffffffff909116815260200161019f565b6101e46103003660046114ef565b60076020526000908152604090205481565b6000546001600160a01b031661018b565b6101e460045481565b6101bb61033a366004611466565b610733565b6101e47f000000000000000000000000000000000000000000000000000000000000000081565b6101e46103743660046114ef565b60096020526000908152604090205481565b6101e461039436600461148a565b6107ec565b6103c07f000000000000000000000000000000000000000000000000000000000000000081565b60405161ffff909116815260200161019f565b6101bb6103e1366004611508565b61085a565b6101e47f000000000000000000000000000000000000000000000000000000000000000081565b6101bb61041b366004611466565b6108cb565b6101e461042e3660046114ef565b60086020526000908152604090205481565b6101bb61044e366004611543565b610944565b600061045e84610992565b9050833561046a610ac5565b10156104c95760405162461bcd60e51b8152602060048201526024808201527f55706461746520736c6f7420697320746f6f2066617220696e207468652066756044820152637475726560e01b60648201526084015b60405180910390fd5b6004548460200135101561052a5760405162461bcd60e51b815260206004820152602260248201527f55706461746520736c6f74206c657373207468616e2063757272656e74206865604482015261185960f21b60648201526084016104c0565b801561065357610547846020013585606001358660800135610b21565b6005546040516338dd17eb60e11b81526001600160a01b03858116600483015260009216906371ba2fd690602401602060405180830381865afa158015610592573d6000803e3d6000fd5b505050506040513d601f19601f820116820180604052508101906105b6919061156f565b6004805460009081526008602090815260408083205460069092529182902054825163704316e560e01b815261ffff891694810194909452602484019190915290880135604483015260648201529091506001600160a01b0382169063704316e590608401600060405180830381600087803b15801561063557600080fd5b505af1158015610649573d6000803e3d6000fd5b505050505061069b565b60405162461bcd60e51b815260206004820152601760248201527f4e6f7420656e6f756768207061727469636970616e747300000000000000000060448201526064016104c0565b50505050565b6106a9610bf4565b600280546001600160a01b0319166001600160a01b0392909216919091179055565b6106d3610bf4565b600380546001600160a01b0319166001600160a01b0392909216919091179055565b6106fd610bf4565b600180546001600160a01b0319166001600160a01b0392909216919091179055565b610727610bf4565b6107316000610c4e565b565b6001600160a01b0381166107895760405162461bcd60e51b815260206004820152601b60248201527f5a6b4272696467654f7261636c653a5a65726f2061646472657373000000000060448201526064016104c0565b604080516001600160a01b03831680825260208201527f9bb1ee10df65f2ea6e9b6f1911afe80df0374a7e2fa65c7786fe98398e5eda9f910160405180910390a1600580546001600160a01b0319166001600160a01b0392909216919091179055565b6040805161ffff86811682528516602082015267ffffffffffffffff8416818301526001600160a01b0383166060820152607b6080820181905291517fdaebd99ba0f67a2d7a70d027ab177cad40ce040f65a9c4d98544a5463a172ebd9181900360a00190a1949350505050565b6000610866828061158c565b61086f90611871565b90506000610885610880848061158c565b610992565b905060006108968360200151610c9e565b905060006108a582600161191a565b90506108b085610cd0565b82156108c4576108c4818660400135610e5f565b5050505050565b6108d3610bf4565b6001600160a01b0381166109385760405162461bcd60e51b815260206004820152602660248201527f4f776e61626c653a206e6577206f776e657220697320746865207a65726f206160448201526564647265737360d01b60648201526084016104c0565b61094181610c4e565b50565b61094c610bf4565b604080516001600160a01b0384168152602081018390527f66bf9186b00db666fc37aaffbb95a050c66e599e000c785c1dff0467d868f1b1910160405180910390a15050565b60008061099f8335610c9e565b60008181526009602052604081205491925003610a1c5760405162461bcd60e51b815260206004820152603560248201527f53796e6320636f6d6d697474656520666f722063757272656e7420706572696f604482015274321034b9903737ba1034b734ba34b0b634bd32b21760591b60648201526084016104c0565b600a83604001351015610a8b5760405162461bcd60e51b815260206004820152603160248201527f4c657373207468616e204d494e5f53594e435f434f4d4d49545445455f5041526044820152702a24a1a4a820a72a299039b4b3b732b21760791b60648201526084016104c0565b610a9483610edf565b505061ffff7f0000000000000000000000000000000000000000000000000000000000000000166040909101351190565b60007f0000000000000000000000000000000000000000000000000000000000000000610b127f00000000000000000000000000000000000000000000000000000000000000004261192d565b610b1c9190611956565b905090565b60008381526006602052604090205415610b5d576000838152600660205260409020548214610b58576003805460ff60a01b191690555b505050565b60008381526008602052604090205415610b98576000838152600860205260409020548114610b58576003805460ff60a01b19169055505050565b6004839055600083815260066020908152604080832085905560088252808320849055600790915280822042905551839185917ffefccbcf6acd2cac524c1cb2d70450cabbec5bc95873e927c121d2d9b7924a029190a3505050565b6000546001600160a01b031633146107315760405162461bcd60e51b815260206004820181905260248201527f4f776e61626c653a2063616c6c6572206973206e6f7420746865206f776e657260448201526064016104c0565b600080546001600160a01b038381166001600160a01b0319831681178455604051919092169283917f8be0079c531659141344cd1fd0a4f28419497f9722a3daafe3b4186f6b6457e09190a35050565b6000610cca7f000000000000000000000000000000000000000000000000000000000000000083611956565b92915050565b6000610cdf606083018361196a565b610ce890611980565b9050610cf26113b6565b602083013560005b6020811015610d5057610d0f6101008361198c565b83610d1b83601f61192d565b60418110610d2b57610d2b6119a0565b6020020152610d3c61010083611956565b915080610d48816119b6565b915050610cfa565b506000610d5d858061158c565b60600135905060005b6020811015610dbc57610d7b6101008361198c565b84610d8783604061192d565b60418110610d9757610d976119a0565b6020020152610da861010083611956565b915080610db4816119b6565b915050610d66565b50610dca604086013561126e565b6104008401526001548451602086015160408088015160025491516320702f5760e01b81526001600160a01b03958616956320702f5795610e15959094909392911690600401611a6f565b602060405180830381865afa158015610e32573d6000803e3d6000fd5b505050506040513d601f19601f82011682018060405250810190610e569190611b14565b6108c457600080fd5b60008281526009602052604090205415801590610e8a57506000828152600960205260409020548114155b15610ea05750506003805460ff60a01b19169055565b60008281526009602052604080822083905551829184917f783ee45e8820a8249b1456ff4a715f3bd483b1a59bdc7a49bbc316bbd67a4e2f9190a35050565b6000610eeb823561126e565b90506000610efc836020013561126e565b90506000610f0d846040013561126e565b90506000610f1b8535610c9e565b600081815260096020908152604080832054815192830189905290820187905292935060029060600160408051601f1981840301815290829052610f5e91611b36565b602060405180830381855afa158015610f7b573d6000803e3d6000fd5b5050506040513d601f19601f82011682018060405250810190610f9e9190611b48565b90506002818860600135604051602001610fc2929190918252602082015260400190565b60408051601f1981840301815290829052610fdc91611b36565b602060405180830381855afa158015610ff9573d6000803e3d6000fd5b5050506040513d601f19601f8201168201806040525081019061101c9190611b48565b90506002818560405160200161103c929190918252602082015260400190565b60408051601f198184030181529082905261105691611b36565b602060405180830381855afa158015611073573d6000803e3d6000fd5b5050506040513d601f19601f820116820180604052508101906110969190611b48565b905060028188608001356040516020016110ba929190918252602082015260400190565b60408051601f19818403018152908290526110d491611b36565b602060405180830381855afa1580156110f1573d6000803e3d6000fd5b5050506040513d601f19601f820116820180604052508101906111149190611b48565b905060028183604051602001611134929190918252602082015260400190565b60408051601f198184030181529082905261114e91611b36565b602060405180830381855afa15801561116b573d6000803e3d6000fd5b5050506040513d601f19601f8201168201806040525081019061118e9190611b48565b9050600061119b8261126e565b90506111ac6001600160fd1b61192d565b1660006111bc60a08a018a61196a565b6111c590611980565b60408051602080820183528582526001548451918501518486015160035495516320702f5760e01b815296975093956001600160a01b03928316956320702f579561121895949092911690600401611a6f565b602060405180830381865afa158015611235573d6000803e3d6000fd5b505050506040513d601f19601f820116820180604052508101906112599190611b14565b61126257600080fd5b50505050505050505050565b60006008827eff00ff00ff00ff00ff00ff00ff00ff00ff00ff00ff00ff00ff00ff00ff00ff16901b6008837fff00ff00ff00ff00ff00ff00ff00ff00ff00ff00ff00ff00ff00ff00ff00ff0016901c1791506010827dffff0000ffff0000ffff0000ffff0000ffff0000ffff0000ffff0000ffff16901b6010837fffff0000ffff0000ffff0000ffff0000ffff0000ffff0000ffff0000ffff000016901c1791506020827bffffffff00000000ffffffff00000000ffffffff00000000ffffffff16901b6020837fffffffff00000000ffffffff00000000ffffffff00000000ffffffff0000000016901c17915060408277ffffffffffffffff0000000000000000ffffffffffffffff16901b60408377ffffffffffffffff0000000000000000ffffffffffffffff1916901c179150608082901b608083901c1791508160001b9050919050565b6040518061082001604052806041906020820280368337509192915050565b6001600160a01b038116811461094157600080fd5b803561ffff811681146113fc57600080fd5b919050565b60008060006060848603121561141657600080fd5b833567ffffffffffffffff81111561142d57600080fd5b840160c0818703121561143f57600080fd5b9250602084013561144f816113d5565b915061145d604085016113ea565b90509250925092565b60006020828403121561147857600080fd5b8135611483816113d5565b9392505050565b600080600080608085870312156114a057600080fd5b6114a9856113ea565b93506114b7602086016113ea565b9250604085013567ffffffffffffffff811681146114d457600080fd5b915060608501356114e4816113d5565b939692955090935050565b60006020828403121561150157600080fd5b5035919050565b60006020828403121561151a57600080fd5b813567ffffffffffffffff81111561153157600080fd5b82016080818503121561148357600080fd5b6000806040838503121561155657600080fd5b8235611561816113d5565b946020939093013593505050565b60006020828403121561158157600080fd5b8151611483816113d5565b6000823560be198336030181126115a257600080fd5b9190910192915050565b634e487b7160e01b600052604160045260246000fd5b6040516060810167ffffffffffffffff811182821017156115e5576115e56115ac565b60405290565b604051601f8201601f1916810167ffffffffffffffff81118282101715611614576116146115ac565b604052919050565b600067ffffffffffffffff821115611636576116366115ac565b5060051b60200190565b600082601f83011261165157600080fd5b813560206116666116618361161c565b6115eb565b82815260059290921b8401810191818101908684111561168557600080fd5b8286015b848110156116a05780358352918301918301611689565b509695505050505050565b600082601f8301126116bc57600080fd5b813560206116cc6116618361161c565b828152600592831b85018201928282019190878511156116eb57600080fd5b8387015b8581101561177f57803567ffffffffffffffff81111561170f5760008081fd5b8801603f81018a136117215760008081fd5b8581013560406117336116618361161c565b82815291851b8301810191888101908d8411156117505760008081fd5b938201935b8385101561176e57843582529389019390890190611755565b8852505050938501935084016116ef565b5090979650505050505050565b60006060828403121561179e57600080fd5b6117a66115c2565b9050813567ffffffffffffffff808211156117c057600080fd5b818401915084601f8301126117d457600080fd5b81356020828211156117e8576117e86115ac565b6117fa601f8301601f191682016115eb565b828152878284870101111561180e57600080fd5b8282860183830137600081840183015285528581013593508284111561183357600080fd5b61183f87858801611640565b9085015250604084013591508082111561185857600080fd5b50611865848285016116ab565b60408301525092915050565b600060c0823603121561188357600080fd5b60405160c0810167ffffffffffffffff82821081831117156118a7576118a76115ac565b81604052843583526020850135602084015260408501356040840152606085013560608401526080850135608084015260a08501359150808211156118eb57600080fd5b506118f83682860161178c565b60a08301525092915050565b634e487b7160e01b600052601160045260246000fd5b80820180821115610cca57610cca611904565b81810381811115610cca57610cca611904565b634e487b7160e01b600052601260045260246000fd5b60008261196557611965611940565b500490565b60008235605e198336030181126115a257600080fd5b6000610cca368361178c565b60008261199b5761199b611940565b500690565b634e487b7160e01b600052603260045260246000fd5b6000600182016119c8576119c8611904565b5060010190565b60005b838110156119ea5781810151838201526020016119d2565b50506000910152565b600081518084526020808501808196508360051b810191508286016000805b86811015611a61578385038a52825180518087529087019087870190845b81811015611a4c57835183529289019291890191600101611a30565b50509a87019a95505091850191600101611a12565b509298975050505050505050565b60808152600085518060808401526020611a8f8260a08601838b016119cf565b60a0601f19601f9390930192909216840184810383018583015287519281018390528782019260009160c001905b80831015611add5784518252938301936001929092019190830190611abd565b508581036040870152611af081896119f3565b945050505050611b0b60608301846001600160a01b03169052565b95945050505050565b600060208284031215611b2657600080fd5b8151801515811461148357600080fd5b600082516115a28184602087016119cf565b600060208284031215611b5a57600080fd5b505191905056fea26469706673582212201a09991dd8b1d5d5072a81e9b604ff38f5a8115c8179d0de8e717905c050bcf264736f6c63430008100033","opcodes":"PUSH2 0x140 PUSH1 0x40 MSTORE PUSH1 0x3 DUP1 SLOAD PUSH1 0xFF PUSH1 0xA0 SHL NOT AND PUSH1 0x1 PUSH1 0xA0 SHL OR SWAP1 SSTORE PUSH1 0x0 PUSH1 0x4 SSTORE CALLVALUE DUP1 ISZERO PUSH3 0x2A JUMPI PUSH1 0x0 DUP1 REVERT JUMPDEST POP PUSH1 0x40 MLOAD PUSH3 0x1EC9 CODESIZE SUB DUP1 PUSH3 0x1EC9 DUP4 CODECOPY DUP2 ADD PUSH1 0x40 DUP2 SWAP1 MSTORE PUSH3 0x4D SWAP2 PUSH3 0x1FD JUMP JUMPDEST PUSH3 0x58 CALLER PUSH3 0xFB JUMP JUMPDEST PUSH1 0x1 DUP1 SLOAD PUSH1 0x1 PUSH1 0x1 PUSH1 0xA0 SHL SUB DUP1 DUP16 AND PUSH1 0x1 PUSH1 0x1 PUSH1 0xA0 SHL SUB NOT SWAP3 DUP4 AND OR SWAP1 SWAP3 SSTORE PUSH1 0x3 DUP1 SLOAD DUP15 DUP5 AND SWAP1 DUP4 AND OR SWAP1 SSTORE PUSH1 0x2 DUP1 SLOAD SWAP3 DUP14 AND SWAP3 SWAP1 SWAP2 AND SWAP2 SWAP1 SWAP2 OR SWAP1 SSTORE PUSH1 0x80 DUP10 SWAP1 MSTORE PUSH1 0xA0 DUP9 SWAP1 MSTORE PUSH1 0xC0 DUP8 SWAP1 MSTORE PUSH1 0xE0 DUP7 SWAP1 MSTORE PUSH4 0xFFFFFFFF DUP4 AND PUSH2 0x100 MSTORE PUSH2 0xFFFF DUP3 AND PUSH2 0x120 MSTORE PUSH3 0xC9 DUP6 DUP6 PUSH3 0x14B JUMP JUMPDEST PUSH1 0x5 DUP1 SLOAD PUSH1 0x1 PUSH1 0x1 PUSH1 0xA0 SHL SUB NOT AND PUSH1 0x1 PUSH1 0x1 PUSH1 0xA0 SHL SUB SWAP3 SWAP1 SWAP3 AND SWAP2 SWAP1 SWAP2 OR SWAP1 SSTORE POP PUSH3 0x2C6 SWAP10 POP POP POP POP POP POP POP POP POP POP JUMP JUMPDEST PUSH1 0x0 DUP1 SLOAD PUSH1 0x1 PUSH1 0x1 PUSH1 0xA0 SHL SUB DUP4 DUP2 AND PUSH1 0x1 PUSH1 0x1 PUSH1 0xA0 SHL SUB NOT DUP4 AND DUP2 OR DUP5 SSTORE PUSH1 0x40 MLOAD SWAP2 SWAP1 SWAP3 AND SWAP3 DUP4 SWAP2 PUSH32 0x8BE0079C531659141344CD1FD0A4F28419497F9722A3DAAFE3B4186F6B6457E0 SWAP2 SWAP1 LOG3 POP POP JUMP JUMPDEST PUSH1 0x0 DUP3 DUP2 MSTORE PUSH1 0x9 PUSH1 0x20 MSTORE PUSH1 0x40 SWAP1 KECCAK256 SLOAD ISZERO DUP1 ISZERO SWAP1 PUSH3 0x177 JUMPI POP PUSH1 0x0 DUP3 DUP2 MSTORE PUSH1 0x9 PUSH1 0x20 MSTORE PUSH1 0x40 SWAP1 KECCAK256 SLOAD DUP2 EQ ISZERO JUMPDEST ISZERO PUSH3 0x18E JUMPI POP POP PUSH1 0x3 DUP1 SLOAD PUSH1 0xFF PUSH1 0xA0 SHL NOT AND SWAP1 SSTORE JUMP JUMPDEST PUSH1 0x0 DUP3 DUP2 MSTORE PUSH1 0x9 PUSH1 0x20 MSTORE PUSH1 0x40 DUP1 DUP3 KECCAK256 DUP4 SWAP1 SSTORE MLOAD DUP3 SWAP2 DUP5 SWAP2 PUSH32 0x783EE45E8820A8249B1456FF4A715F3BD483B1A59BDC7A49BBC316BBD67A4E2F SWAP2 SWAP1 LOG3 POP POP JUMP JUMPDEST DUP1 MLOAD PUSH1 0x1 PUSH1 0x1 PUSH1 0xA0 SHL SUB DUP2 AND DUP2 EQ PUSH3 0x1E5 JUMPI PUSH1 0x0 DUP1 REVERT JUMPDEST SWAP2 SWAP1 POP JUMP JUMPDEST DUP1 MLOAD PUSH2 0xFFFF DUP2 AND DUP2 EQ PUSH3 0x1E5 JUMPI PUSH1 0x0 DUP1 REVERT JUMPDEST PUSH1 0x0 DUP1 PUSH1 0x0 DUP1 PUSH1 0x0 DUP1 PUSH1 0x0 DUP1 PUSH1 0x0 DUP1 PUSH1 0x0 DUP1 PUSH2 0x180 DUP14 DUP16 SUB SLT ISZERO PUSH3 0x221 JUMPI PUSH1 0x0 DUP1 REVERT JUMPDEST PUSH3 0x22C DUP14 PUSH3 0x1CD JUMP JUMPDEST SWAP12 POP PUSH3 0x23C PUSH1 0x20 DUP15 ADD PUSH3 0x1CD JUMP JUMPDEST SWAP11 POP PUSH3 0x24C PUSH1 0x40 DUP15 ADD PUSH3 0x1CD JUMP JUMPDEST SWAP10 POP PUSH1 0x60 DUP14 ADD MLOAD SWAP9 POP PUSH1 0x80 DUP14 ADD MLOAD SWAP8 POP PUSH1 0xA0 DUP14 ADD MLOAD SWAP7 POP PUSH1 0xC0 DUP14 ADD MLOAD SWAP6 POP PUSH1 0xE0 DUP14 ADD MLOAD SWAP5 POP PUSH2 0x100 DUP14 ADD MLOAD SWAP4 POP PUSH2 0x120 DUP14 ADD MLOAD PUSH4 0xFFFFFFFF DUP2 AND DUP2 EQ PUSH3 0x292 JUMPI PUSH1 0x0 DUP1 REVERT JUMPDEST SWAP3 POP PUSH3 0x2A3 PUSH2 0x140 DUP15 ADD PUSH3 0x1EA JUMP JUMPDEST SWAP2 POP PUSH3 0x2B4 PUSH2 0x160 DUP15 ADD PUSH3 0x1CD JUMP JUMPDEST SWAP1 POP SWAP3 SWAP6 SWAP9 SWAP12 POP SWAP3 SWAP6 SWAP9 SWAP12 POP SWAP3 SWAP6 SWAP9 SWAP12 JUMP JUMPDEST PUSH1 0x80 MLOAD PUSH1 0xA0 MLOAD PUSH1 0xC0 MLOAD PUSH1 0xE0 MLOAD PUSH2 0x100 MLOAD PUSH2 0x120 MLOAD PUSH2 0x1B97 PUSH3 0x332 PUSH1 0x0 CODECOPY PUSH1 0x0 DUP2 DUP2 PUSH2 0x39E ADD MSTORE PUSH2 0xA9B ADD MSTORE PUSH1 0x0 PUSH2 0x2BB ADD MSTORE PUSH1 0x0 DUP2 DUP2 PUSH2 0x1C2 ADD MSTORE PUSH2 0xCA5 ADD MSTORE PUSH1 0x0 DUP2 DUP2 PUSH2 0x21B ADD MSTORE PUSH2 0xAC9 ADD MSTORE PUSH1 0x0 DUP2 DUP2 PUSH2 0x3EB ADD MSTORE PUSH2 0xAED ADD MSTORE PUSH1 0x0 PUSH2 0x344 ADD MSTORE PUSH2 0x1B97 PUSH1 0x0 RETURN INVALID PUSH1 0x80 PUSH1 0x40 MSTORE CALLVALUE DUP1 ISZERO PUSH2 0x10 JUMPI PUSH1 0x0 DUP1 REVERT JUMPDEST POP PUSH1 0x4 CALLDATASIZE LT PUSH2 0x173 JUMPI PUSH1 0x0 CALLDATALOAD PUSH1 0xE0 SHR DUP1 PUSH4 0x8BC33AF3 GT PUSH2 0xDE JUMPI DUP1 PUSH4 0xC5E193CD GT PUSH2 0x97 JUMPI DUP1 PUSH4 0xF2882461 GT PUSH2 0x71 JUMPI DUP1 PUSH4 0xF2882461 EQ PUSH2 0x3E6 JUMPI DUP1 PUSH4 0xF2FDE38B EQ PUSH2 0x40D JUMPI DUP1 PUSH4 0xF4CAC30D EQ PUSH2 0x420 JUMPI DUP1 PUSH4 0xFD9BE522 EQ PUSH2 0x440 JUMPI PUSH1 0x0 DUP1 REVERT JUMPDEST DUP1 PUSH4 0xC5E193CD EQ PUSH2 0x386 JUMPI DUP1 PUSH4 0xDA4B05E7 EQ PUSH2 0x399 JUMPI DUP1 PUSH4 0xDEB0B3C6 EQ PUSH2 0x3D3 JUMPI PUSH1 0x0 DUP1 REVERT JUMPDEST DUP1 PUSH4 0x8BC33AF3 EQ PUSH2 0x2F2 JUMPI DUP1 PUSH4 0x8DA5CB5B EQ PUSH2 0x312 JUMPI DUP1 PUSH4 0x8F7DCFA3 EQ PUSH2 0x323 JUMPI DUP1 PUSH4 0x95B9783C EQ PUSH2 0x32C JUMPI DUP1 PUSH4 0xA8769ACB EQ PUSH2 0x33F JUMPI DUP1 PUSH4 0xB34711AB EQ PUSH2 0x366 JUMPI PUSH1 0x0 DUP1 REVERT JUMPDEST DUP1 PUSH4 0x4F96CF28 GT PUSH2 0x130 JUMPI DUP1 PUSH4 0x4F96CF28 EQ PUSH2 0x250 JUMPI DUP1 PUSH4 0x5437988D EQ PUSH2 0x263 JUMPI DUP1 PUSH4 0x5553FB8E EQ PUSH2 0x276 JUMPI DUP1 PUSH4 0x56F90D79 EQ PUSH2 0x28E JUMPI DUP1 PUSH4 0x715018A6 EQ PUSH2 0x2AE JUMPI DUP1 PUSH4 0x74BE2150 EQ PUSH2 0x2B6 JUMPI PUSH1 0x0 DUP1 REVERT JUMPDEST DUP1 PUSH4 0x7968DB1 EQ PUSH2 0x178 JUMPI DUP1 PUSH4 0x205CA226 EQ PUSH2 0x1A8 JUMPI DUP1 PUSH4 0x2073EE70 EQ PUSH2 0x1BD JUMPI DUP1 PUSH4 0x2BCCCCA5 EQ PUSH2 0x1F2 JUMPI DUP1 PUSH4 0x304B9071 EQ PUSH2 0x216 JUMPI DUP1 PUSH4 0x4A732408 EQ PUSH2 0x23D JUMPI JUMPDEST PUSH1 0x0 DUP1 REVERT JUMPDEST PUSH1 0x5 SLOAD PUSH2 0x18B SWAP1 PUSH1 0x1 PUSH1 0x1 PUSH1 0xA0 SHL SUB AND DUP2 JUMP JUMPDEST PUSH1 0x40 MLOAD PUSH1 0x1 PUSH1 0x1 PUSH1 0xA0 SHL SUB SWAP1 SWAP2 AND DUP2 MSTORE PUSH1 0x20 ADD JUMPDEST PUSH1 0x40 MLOAD DUP1 SWAP2 SUB SWAP1 RETURN JUMPDEST PUSH2 0x1BB PUSH2 0x1B6 CALLDATASIZE PUSH1 0x4 PUSH2 0x1401 JUMP JUMPDEST PUSH2 0x453 JUMP JUMPDEST STOP JUMPDEST PUSH2 0x1E4 PUSH32 0x0 DUP2 JUMP JUMPDEST PUSH1 0x40 MLOAD SWAP1 DUP2 MSTORE PUSH1 0x20 ADD PUSH2 0x19F JUMP JUMPDEST PUSH1 0x3 SLOAD PUSH2 0x206 SWAP1 PUSH1 0x1 PUSH1 0xA0 SHL SWAP1 DIV PUSH1 0xFF AND DUP2 JUMP JUMPDEST PUSH1 0x40 MLOAD SWAP1 ISZERO ISZERO DUP2 MSTORE PUSH1 0x20 ADD PUSH2 0x19F JUMP JUMPDEST PUSH2 0x1E4 PUSH32 0x0 DUP2 JUMP JUMPDEST PUSH2 0x1BB PUSH2 0x24B CALLDATASIZE PUSH1 0x4 PUSH2 0x1466 JUMP JUMPDEST PUSH2 0x6A1 JUMP JUMPDEST PUSH2 0x1BB PUSH2 0x25E CALLDATASIZE PUSH1 0x4 PUSH2 0x1466 JUMP JUMPDEST PUSH2 0x6CB JUMP JUMPDEST PUSH2 0x1BB PUSH2 0x271 CALLDATASIZE PUSH1 0x4 PUSH2 0x1466 JUMP JUMPDEST PUSH2 0x6F5 JUMP JUMPDEST PUSH2 0x1E4 PUSH2 0x284 CALLDATASIZE PUSH1 0x4 PUSH2 0x148A JUMP JUMPDEST POP PUSH1 0x7B SWAP4 SWAP3 POP POP POP JUMP JUMPDEST PUSH2 0x1E4 PUSH2 0x29C CALLDATASIZE PUSH1 0x4 PUSH2 0x14EF JUMP JUMPDEST PUSH1 0x6 PUSH1 0x20 MSTORE PUSH1 0x0 SWAP1 DUP2 MSTORE PUSH1 0x40 SWAP1 KECCAK256 SLOAD DUP2 JUMP JUMPDEST PUSH2 0x1BB PUSH2 0x71F JUMP JUMPDEST PUSH2 0x2DD PUSH32 0x0 DUP2 JUMP JUMPDEST PUSH1 0x40 MLOAD PUSH4 0xFFFFFFFF SWAP1 SWAP2 AND DUP2 MSTORE PUSH1 0x20 ADD PUSH2 0x19F JUMP JUMPDEST PUSH2 0x1E4 PUSH2 0x300 CALLDATASIZE PUSH1 0x4 PUSH2 0x14EF JUMP JUMPDEST PUSH1 0x7 PUSH1 0x20 MSTORE PUSH1 0x0 SWAP1 DUP2 MSTORE PUSH1 0x40 SWAP1 KECCAK256 SLOAD DUP2 JUMP JUMPDEST PUSH1 0x0 SLOAD PUSH1 0x1 PUSH1 0x1 PUSH1 0xA0 SHL SUB AND PUSH2 0x18B JUMP JUMPDEST PUSH2 0x1E4 PUSH1 0x4 SLOAD DUP2 JUMP JUMPDEST PUSH2 0x1BB PUSH2 0x33A CALLDATASIZE PUSH1 0x4 PUSH2 0x1466 JUMP JUMPDEST PUSH2 0x733 JUMP JUMPDEST PUSH2 0x1E4 PUSH32 0x0 DUP2 JUMP JUMPDEST PUSH2 0x1E4 PUSH2 0x374 CALLDATASIZE PUSH1 0x4 PUSH2 0x14EF JUMP JUMPDEST PUSH1 0x9 PUSH1 0x20 MSTORE PUSH1 0x0 SWAP1 DUP2 MSTORE PUSH1 0x40 SWAP1 KECCAK256 SLOAD DUP2 JUMP JUMPDEST PUSH2 0x1E4 PUSH2 0x394 CALLDATASIZE PUSH1 0x4 PUSH2 0x148A JUMP JUMPDEST PUSH2 0x7EC JUMP JUMPDEST PUSH2 0x3C0 PUSH32 0x0 DUP2 JUMP JUMPDEST PUSH1 0x40 MLOAD PUSH2 0xFFFF SWAP1 SWAP2 AND DUP2 MSTORE PUSH1 0x20 ADD PUSH2 0x19F JUMP JUMPDEST PUSH2 0x1BB PUSH2 0x3E1 CALLDATASIZE PUSH1 0x4 PUSH2 0x1508 JUMP JUMPDEST PUSH2 0x85A JUMP JUMPDEST PUSH2 0x1E4 PUSH32 0x0 DUP2 JUMP JUMPDEST PUSH2 0x1BB PUSH2 0x41B CALLDATASIZE PUSH1 0x4 PUSH2 0x1466 JUMP JUMPDEST PUSH2 0x8CB JUMP JUMPDEST PUSH2 0x1E4 PUSH2 0x42E CALLDATASIZE PUSH1 0x4 PUSH2 0x14EF JUMP JUMPDEST PUSH1 0x8 PUSH1 0x20 MSTORE PUSH1 0x0 SWAP1 DUP2 MSTORE PUSH1 0x40 SWAP1 KECCAK256 SLOAD DUP2 JUMP JUMPDEST PUSH2 0x1BB PUSH2 0x44E CALLDATASIZE PUSH1 0x4 PUSH2 0x1543 JUMP JUMPDEST PUSH2 0x944 JUMP JUMPDEST PUSH1 0x0 PUSH2 0x45E DUP5 PUSH2 0x992 JUMP JUMPDEST SWAP1 POP DUP4 CALLDATALOAD PUSH2 0x46A PUSH2 0xAC5 JUMP JUMPDEST LT ISZERO PUSH2 0x4C9 JUMPI PUSH1 0x40 MLOAD PUSH3 0x461BCD PUSH1 0xE5 SHL DUP2 MSTORE PUSH1 0x20 PUSH1 0x4 DUP3 ADD MSTORE PUSH1 0x24 DUP1 DUP3 ADD MSTORE PUSH32 0x55706461746520736C6F7420697320746F6F2066617220696E20746865206675 PUSH1 0x44 DUP3 ADD MSTORE PUSH4 0x74757265 PUSH1 0xE0 SHL PUSH1 0x64 DUP3 ADD MSTORE PUSH1 0x84 ADD JUMPDEST PUSH1 0x40 MLOAD DUP1 SWAP2 SUB SWAP1 REVERT JUMPDEST PUSH1 0x4 SLOAD DUP5 PUSH1 0x20 ADD CALLDATALOAD LT ISZERO PUSH2 0x52A JUMPI PUSH1 0x40 MLOAD PUSH3 0x461BCD PUSH1 0xE5 SHL DUP2 MSTORE PUSH1 0x20 PUSH1 0x4 DUP3 ADD MSTORE PUSH1 0x22 PUSH1 0x24 DUP3 ADD MSTORE PUSH32 0x55706461746520736C6F74206C657373207468616E2063757272656E74206865 PUSH1 0x44 DUP3 ADD MSTORE PUSH2 0x1859 PUSH1 0xF2 SHL PUSH1 0x64 DUP3 ADD MSTORE PUSH1 0x84 ADD PUSH2 0x4C0 JUMP JUMPDEST DUP1 ISZERO PUSH2 0x653 JUMPI PUSH2 0x547 DUP5 PUSH1 0x20 ADD CALLDATALOAD DUP6 PUSH1 0x60 ADD CALLDATALOAD DUP7 PUSH1 0x80 ADD CALLDATALOAD PUSH2 0xB21 JUMP JUMPDEST PUSH1 0x5 SLOAD PUSH1 0x40 MLOAD PUSH4 0x38DD17EB PUSH1 0xE1 SHL DUP2 MSTORE PUSH1 0x1 PUSH1 0x1 PUSH1 0xA0 SHL SUB DUP6 DUP2 AND PUSH1 0x4 DUP4 ADD MSTORE PUSH1 0x0 SWAP3 AND SWAP1 PUSH4 0x71BA2FD6 SWAP1 PUSH1 0x24 ADD PUSH1 0x20 PUSH1 0x40 MLOAD DUP1 DUP4 SUB DUP2 DUP7 GAS STATICCALL ISZERO DUP1 ISZERO PUSH2 0x592 JUMPI RETURNDATASIZE PUSH1 0x0 DUP1 RETURNDATACOPY RETURNDATASIZE PUSH1 0x0 REVERT JUMPDEST POP POP POP POP PUSH1 0x40 MLOAD RETURNDATASIZE PUSH1 0x1F NOT PUSH1 0x1F DUP3 ADD AND DUP3 ADD DUP1 PUSH1 0x40 MSTORE POP DUP2 ADD SWAP1 PUSH2 0x5B6 SWAP2 SWAP1 PUSH2 0x156F JUMP JUMPDEST PUSH1 0x4 DUP1 SLOAD PUSH1 0x0 SWAP1 DUP2 MSTORE PUSH1 0x8 PUSH1 0x20 SWAP1 DUP2 MSTORE PUSH1 0x40 DUP1 DUP4 KECCAK256 SLOAD PUSH1 0x6 SWAP1 SWAP3 MSTORE SWAP2 DUP3 SWAP1 KECCAK256 SLOAD DUP3 MLOAD PUSH4 0x704316E5 PUSH1 0xE0 SHL DUP2 MSTORE PUSH2 0xFFFF DUP10 AND SWAP5 DUP2 ADD SWAP5 SWAP1 SWAP5 MSTORE PUSH1 0x24 DUP5 ADD SWAP2 SWAP1 SWAP2 MSTORE SWAP1 DUP9 ADD CALLDATALOAD PUSH1 0x44 DUP4 ADD MSTORE PUSH1 0x64 DUP3 ADD MSTORE SWAP1 SWAP2 POP PUSH1 0x1 PUSH1 0x1 PUSH1 0xA0 SHL SUB DUP3 AND SWAP1 PUSH4 0x704316E5 SWAP1 PUSH1 0x84 ADD PUSH1 0x0 PUSH1 0x40 MLOAD DUP1 DUP4 SUB DUP2 PUSH1 0x0 DUP8 DUP1 EXTCODESIZE ISZERO DUP1 ISZERO PUSH2 0x635 JUMPI PUSH1 0x0 DUP1 REVERT JUMPDEST POP GAS CALL ISZERO DUP1 ISZERO PUSH2 0x649 JUMPI RETURNDATASIZE PUSH1 0x0 DUP1 RETURNDATACOPY RETURNDATASIZE PUSH1 0x0 REVERT JUMPDEST POP POP POP POP POP PUSH2 0x69B JUMP JUMPDEST PUSH1 0x40 MLOAD PUSH3 0x461BCD PUSH1 0xE5 SHL DUP2 MSTORE PUSH1 0x20 PUSH1 0x4 DUP3 ADD MSTORE PUSH1 0x17 PUSH1 0x24 DUP3 ADD MSTORE PUSH32 0x4E6F7420656E6F756768207061727469636970616E7473000000000000000000 PUSH1 0x44 DUP3 ADD MSTORE PUSH1 0x64 ADD PUSH2 0x4C0 JUMP JUMPDEST POP POP POP POP JUMP JUMPDEST PUSH2 0x6A9 PUSH2 0xBF4 JUMP JUMPDEST PUSH1 0x2 DUP1 SLOAD PUSH1 0x1 PUSH1 0x1 PUSH1 0xA0 SHL SUB NOT AND PUSH1 0x1 PUSH1 0x1 PUSH1 0xA0 SHL SUB SWAP3 SWAP1 SWAP3 AND SWAP2 SWAP1 SWAP2 OR SWAP1 SSTORE JUMP JUMPDEST PUSH2 0x6D3 PUSH2 0xBF4 JUMP JUMPDEST PUSH1 0x3 DUP1 SLOAD PUSH1 0x1 PUSH1 0x1 PUSH1 0xA0 SHL SUB NOT AND PUSH1 0x1 PUSH1 0x1 PUSH1 0xA0 SHL SUB SWAP3 SWAP1 SWAP3 AND SWAP2 SWAP1 SWAP2 OR SWAP1 SSTORE JUMP JUMPDEST PUSH2 0x6FD PUSH2 0xBF4 JUMP JUMPDEST PUSH1 0x1 DUP1 SLOAD PUSH1 0x1 PUSH1 0x1 PUSH1 0xA0 SHL SUB NOT AND PUSH1 0x1 PUSH1 0x1 PUSH1 0xA0 SHL SUB SWAP3 SWAP1 SWAP3 AND SWAP2 SWAP1 SWAP2 OR SWAP1 SSTORE JUMP JUMPDEST PUSH2 0x727 PUSH2 0xBF4 JUMP JUMPDEST PUSH2 0x731 PUSH1 0x0 PUSH2 0xC4E JUMP JUMPDEST JUMP JUMPDEST PUSH1 0x1 PUSH1 0x1 PUSH1 0xA0 SHL SUB DUP2 AND PUSH2 0x789 JUMPI PUSH1 0x40 MLOAD PUSH3 0x461BCD PUSH1 0xE5 SHL DUP2 MSTORE PUSH1 0x20 PUSH1 0x4 DUP3 ADD MSTORE PUSH1 0x1B PUSH1 0x24 DUP3 ADD MSTORE PUSH32 0x5A6B4272696467654F7261636C653A5A65726F20616464726573730000000000 PUSH1 0x44 DUP3 ADD MSTORE PUSH1 0x64 ADD PUSH2 0x4C0 JUMP JUMPDEST PUSH1 0x40 DUP1 MLOAD PUSH1 0x1 PUSH1 0x1 PUSH1 0xA0 SHL SUB DUP4 AND DUP1 DUP3 MSTORE PUSH1 0x20 DUP3 ADD MSTORE PUSH32 0x9BB1EE10DF65F2EA6E9B6F1911AFE80DF0374A7E2FA65C7786FE98398E5EDA9F SWAP2 ADD PUSH1 0x40 MLOAD DUP1 SWAP2 SUB SWAP1 LOG1 PUSH1 0x5 DUP1 SLOAD PUSH1 0x1 PUSH1 0x1 PUSH1 0xA0 SHL SUB NOT AND PUSH1 0x1 PUSH1 0x1 PUSH1 0xA0 SHL SUB SWAP3 SWAP1 SWAP3 AND SWAP2 SWAP1 SWAP2 OR SWAP1 SSTORE JUMP JUMPDEST PUSH1 0x40 DUP1 MLOAD PUSH2 0xFFFF DUP7 DUP2 AND DUP3 MSTORE DUP6 AND PUSH1 0x20 DUP3 ADD MSTORE PUSH8 0xFFFFFFFFFFFFFFFF DUP5 AND DUP2 DUP4 ADD MSTORE PUSH1 0x1 PUSH1 0x1 PUSH1 0xA0 SHL SUB DUP4 AND PUSH1 0x60 DUP3 ADD MSTORE PUSH1 0x7B PUSH1 0x80 DUP3 ADD DUP2 SWAP1 MSTORE SWAP2 MLOAD PUSH32 0xDAEBD99BA0F67A2D7A70D027AB177CAD40CE040F65A9C4D98544A5463A172EBD SWAP2 DUP2 SWAP1 SUB PUSH1 0xA0 ADD SWAP1 LOG1 SWAP5 SWAP4 POP POP POP POP JUMP JUMPDEST PUSH1 0x0 PUSH2 0x866 DUP3 DUP1 PUSH2 0x158C JUMP JUMPDEST PUSH2 0x86F SWAP1 PUSH2 0x1871 JUMP JUMPDEST SWAP1 POP PUSH1 0x0 PUSH2 0x885 PUSH2 0x880 DUP5 DUP1 PUSH2 0x158C JUMP JUMPDEST PUSH2 0x992 JUMP JUMPDEST SWAP1 POP PUSH1 0x0 PUSH2 0x896 DUP4 PUSH1 0x20 ADD MLOAD PUSH2 0xC9E JUMP JUMPDEST SWAP1 POP PUSH1 0x0 PUSH2 0x8A5 DUP3 PUSH1 0x1 PUSH2 0x191A JUMP JUMPDEST SWAP1 POP PUSH2 0x8B0 DUP6 PUSH2 0xCD0 JUMP JUMPDEST DUP3 ISZERO PUSH2 0x8C4 JUMPI PUSH2 0x8C4 DUP2 DUP7 PUSH1 0x40 ADD CALLDATALOAD PUSH2 0xE5F JUMP JUMPDEST POP POP POP POP POP JUMP JUMPDEST PUSH2 0x8D3 PUSH2 0xBF4 JUMP JUMPDEST PUSH1 0x1 PUSH1 0x1 PUSH1 0xA0 SHL SUB DUP2 AND PUSH2 0x938 JUMPI PUSH1 0x40 MLOAD PUSH3 0x461BCD PUSH1 0xE5 SHL DUP2 MSTORE PUSH1 0x20 PUSH1 0x4 DUP3 ADD MSTORE PUSH1 0x26 PUSH1 0x24 DUP3 ADD MSTORE PUSH32 0x4F776E61626C653A206E6577206F776E657220697320746865207A65726F2061 PUSH1 0x44 DUP3 ADD MSTORE PUSH6 0x646472657373 PUSH1 0xD0 SHL PUSH1 0x64 DUP3 ADD MSTORE PUSH1 0x84 ADD PUSH2 0x4C0 JUMP JUMPDEST PUSH2 0x941 DUP2 PUSH2 0xC4E JUMP JUMPDEST POP JUMP JUMPDEST PUSH2 0x94C PUSH2 0xBF4 JUMP JUMPDEST PUSH1 0x40 DUP1 MLOAD PUSH1 0x1 PUSH1 0x1 PUSH1 0xA0 SHL SUB DUP5 AND DUP2 MSTORE PUSH1 0x20 DUP2 ADD DUP4 SWAP1 MSTORE PUSH32 0x66BF9186B00DB666FC37AAFFBB95A050C66E599E000C785C1DFF0467D868F1B1 SWAP2 ADD PUSH1 0x40 MLOAD DUP1 SWAP2 SUB SWAP1 LOG1 POP POP JUMP JUMPDEST PUSH1 0x0 DUP1 PUSH2 0x99F DUP4 CALLDATALOAD PUSH2 0xC9E JUMP JUMPDEST PUSH1 0x0 DUP2 DUP2 MSTORE PUSH1 0x9 PUSH1 0x20 MSTORE PUSH1 0x40 DUP2 KECCAK256 SLOAD SWAP2 SWAP3 POP SUB PUSH2 0xA1C JUMPI PUSH1 0x40 MLOAD PUSH3 0x461BCD PUSH1 0xE5 SHL DUP2 MSTORE PUSH1 0x20 PUSH1 0x4 DUP3 ADD MSTORE PUSH1 0x35 PUSH1 0x24 DUP3 ADD MSTORE PUSH32 0x53796E6320636F6D6D697474656520666F722063757272656E7420706572696F PUSH1 0x44 DUP3 ADD MSTORE PUSH21 0x321034B9903737BA1034B734BA34B0B634BD32B217 PUSH1 0x59 SHL PUSH1 0x64 DUP3 ADD MSTORE PUSH1 0x84 ADD PUSH2 0x4C0 JUMP JUMPDEST PUSH1 0xA DUP4 PUSH1 0x40 ADD CALLDATALOAD LT ISZERO PUSH2 0xA8B JUMPI PUSH1 0x40 MLOAD PUSH3 0x461BCD PUSH1 0xE5 SHL DUP2 MSTORE PUSH1 0x20 PUSH1 0x4 DUP3 ADD MSTORE PUSH1 0x31 PUSH1 0x24 DUP3 ADD MSTORE PUSH32 0x4C657373207468616E204D494E5F53594E435F434F4D4D49545445455F504152 PUSH1 0x44 DUP3 ADD MSTORE PUSH17 0x2A24A1A4A820A72A299039B4B3B732B217 PUSH1 0x79 SHL PUSH1 0x64 DUP3 ADD MSTORE PUSH1 0x84 ADD PUSH2 0x4C0 JUMP JUMPDEST PUSH2 0xA94 DUP4 PUSH2 0xEDF JUMP JUMPDEST POP POP PUSH2 0xFFFF PUSH32 0x0 AND PUSH1 0x40 SWAP1 SWAP2 ADD CALLDATALOAD GT SWAP1 JUMP JUMPDEST PUSH1 0x0 PUSH32 0x0 PUSH2 0xB12 PUSH32 0x0 TIMESTAMP PUSH2 0x192D JUMP JUMPDEST PUSH2 0xB1C SWAP2 SWAP1 PUSH2 0x1956 JUMP JUMPDEST SWAP1 POP SWAP1 JUMP JUMPDEST PUSH1 0x0 DUP4 DUP2 MSTORE PUSH1 0x6 PUSH1 0x20 MSTORE PUSH1 0x40 SWAP1 KECCAK256 SLOAD ISZERO PUSH2 0xB5D JUMPI PUSH1 0x0 DUP4 DUP2 MSTORE PUSH1 0x6 PUSH1 0x20 MSTORE PUSH1 0x40 SWAP1 KECCAK256 SLOAD DUP3 EQ PUSH2 0xB58 JUMPI PUSH1 0x3 DUP1 SLOAD PUSH1 0xFF PUSH1 0xA0 SHL NOT AND SWAP1 SSTORE JUMPDEST POP POP POP JUMP JUMPDEST PUSH1 0x0 DUP4 DUP2 MSTORE PUSH1 0x8 PUSH1 0x20 MSTORE PUSH1 0x40 SWAP1 KECCAK256 SLOAD ISZERO PUSH2 0xB98 JUMPI PUSH1 0x0 DUP4 DUP2 MSTORE PUSH1 0x8 PUSH1 0x20 MSTORE PUSH1 0x40 SWAP1 KECCAK256 SLOAD DUP2 EQ PUSH2 0xB58 JUMPI PUSH1 0x3 DUP1 SLOAD PUSH1 0xFF PUSH1 0xA0 SHL NOT AND SWAP1 SSTORE POP POP POP JUMP JUMPDEST PUSH1 0x4 DUP4 SWAP1 SSTORE PUSH1 0x0 DUP4 DUP2 MSTORE PUSH1 0x6 PUSH1 0x20 SWAP1 DUP2 MSTORE PUSH1 0x40 DUP1 DUP4 KECCAK256 DUP6 SWAP1 SSTORE PUSH1 0x8 DUP3 MSTORE DUP1 DUP4 KECCAK256 DUP5 SWAP1 SSTORE PUSH1 0x7 SWAP1 SWAP2 MSTORE DUP1 DUP3 KECCAK256 TIMESTAMP SWAP1 SSTORE MLOAD DUP4 SWAP2 DUP6 SWAP2 PUSH32 0xFEFCCBCF6ACD2CAC524C1CB2D70450CABBEC5BC95873E927C121D2D9B7924A02 SWAP2 SWAP1 LOG3 POP POP POP JUMP JUMPDEST PUSH1 0x0 SLOAD PUSH1 0x1 PUSH1 0x1 PUSH1 0xA0 SHL SUB AND CALLER EQ PUSH2 0x731 JUMPI PUSH1 0x40 MLOAD PUSH3 0x461BCD PUSH1 0xE5 SHL DUP2 MSTORE PUSH1 0x20 PUSH1 0x4 DUP3 ADD DUP2 SWAP1 MSTORE PUSH1 0x24 DUP3 ADD MSTORE PUSH32 0x4F776E61626C653A2063616C6C6572206973206E6F7420746865206F776E6572 PUSH1 0x44 DUP3 ADD MSTORE PUSH1 0x64 ADD PUSH2 0x4C0 JUMP JUMPDEST PUSH1 0x0 DUP1 SLOAD PUSH1 0x1 PUSH1 0x1 PUSH1 0xA0 SHL SUB DUP4 DUP2 AND PUSH1 0x1 PUSH1 0x1 PUSH1 0xA0 SHL SUB NOT DUP4 AND DUP2 OR DUP5 SSTORE PUSH1 0x40 MLOAD SWAP2 SWAP1 SWAP3 AND SWAP3 DUP4 SWAP2 PUSH32 0x8BE0079C531659141344CD1FD0A4F28419497F9722A3DAAFE3B4186F6B6457E0 SWAP2 SWAP1 LOG3 POP POP JUMP JUMPDEST PUSH1 0x0 PUSH2 0xCCA PUSH32 0x0 DUP4 PUSH2 0x1956 JUMP JUMPDEST SWAP3 SWAP2 POP POP JUMP JUMPDEST PUSH1 0x0 PUSH2 0xCDF PUSH1 0x60 DUP4 ADD DUP4 PUSH2 0x196A JUMP JUMPDEST PUSH2 0xCE8 SWAP1 PUSH2 0x1980 JUMP JUMPDEST SWAP1 POP PUSH2 0xCF2 PUSH2 0x13B6 JUMP JUMPDEST PUSH1 0x20 DUP4 ADD CALLDATALOAD PUSH1 0x0 JUMPDEST PUSH1 0x20 DUP2 LT ISZERO PUSH2 0xD50 JUMPI PUSH2 0xD0F PUSH2 0x100 DUP4 PUSH2 0x198C JUMP JUMPDEST DUP4 PUSH2 0xD1B DUP4 PUSH1 0x1F PUSH2 0x192D JUMP JUMPDEST PUSH1 0x41 DUP2 LT PUSH2 0xD2B JUMPI PUSH2 0xD2B PUSH2 0x19A0 JUMP JUMPDEST PUSH1 0x20 MUL ADD MSTORE PUSH2 0xD3C PUSH2 0x100 DUP4 PUSH2 0x1956 JUMP JUMPDEST SWAP2 POP DUP1 PUSH2 0xD48 DUP2 PUSH2 0x19B6 JUMP JUMPDEST SWAP2 POP POP PUSH2 0xCFA JUMP JUMPDEST POP PUSH1 0x0 PUSH2 0xD5D DUP6 DUP1 PUSH2 0x158C JUMP JUMPDEST PUSH1 0x60 ADD CALLDATALOAD SWAP1 POP PUSH1 0x0 JUMPDEST PUSH1 0x20 DUP2 LT ISZERO PUSH2 0xDBC JUMPI PUSH2 0xD7B PUSH2 0x100 DUP4 PUSH2 0x198C JUMP JUMPDEST DUP5 PUSH2 0xD87 DUP4 PUSH1 0x40 PUSH2 0x192D JUMP JUMPDEST PUSH1 0x41 DUP2 LT PUSH2 0xD97 JUMPI PUSH2 0xD97 PUSH2 0x19A0 JUMP JUMPDEST PUSH1 0x20 MUL ADD MSTORE PUSH2 0xDA8 PUSH2 0x100 DUP4 PUSH2 0x1956 JUMP JUMPDEST SWAP2 POP DUP1 PUSH2 0xDB4 DUP2 PUSH2 0x19B6 JUMP JUMPDEST SWAP2 POP POP PUSH2 0xD66 JUMP JUMPDEST POP PUSH2 0xDCA PUSH1 0x40 DUP7 ADD CALLDATALOAD PUSH2 0x126E JUMP JUMPDEST PUSH2 0x400 DUP5 ADD MSTORE PUSH1 0x1 SLOAD DUP5 MLOAD PUSH1 0x20 DUP7 ADD MLOAD PUSH1 0x40 DUP1 DUP9 ADD MLOAD PUSH1 0x2 SLOAD SWAP2 MLOAD PUSH4 0x20702F57 PUSH1 0xE0 SHL DUP2 MSTORE PUSH1 0x1 PUSH1 0x1 PUSH1 0xA0 SHL SUB SWAP6 DUP7 AND SWAP6 PUSH4 0x20702F57 SWAP6 PUSH2 0xE15 SWAP6 SWAP1 SWAP5 SWAP1 SWAP4 SWAP3 SWAP2 AND SWAP1 PUSH1 0x4 ADD PUSH2 0x1A6F JUMP JUMPDEST PUSH1 0x20 PUSH1 0x40 MLOAD DUP1 DUP4 SUB DUP2 DUP7 GAS STATICCALL ISZERO DUP1 ISZERO PUSH2 0xE32 JUMPI RETURNDATASIZE PUSH1 0x0 DUP1 RETURNDATACOPY RETURNDATASIZE PUSH1 0x0 REVERT JUMPDEST POP POP POP POP PUSH1 0x40 MLOAD RETURNDATASIZE PUSH1 0x1F NOT PUSH1 0x1F DUP3 ADD AND DUP3 ADD DUP1 PUSH1 0x40 MSTORE POP DUP2 ADD SWAP1 PUSH2 0xE56 SWAP2 SWAP1 PUSH2 0x1B14 JUMP JUMPDEST PUSH2 0x8C4 JUMPI PUSH1 0x0 DUP1 REVERT JUMPDEST PUSH1 0x0 DUP3 DUP2 MSTORE PUSH1 0x9 PUSH1 0x20 MSTORE PUSH1 0x40 SWAP1 KECCAK256 SLOAD ISZERO DUP1 ISZERO SWAP1 PUSH2 0xE8A JUMPI POP PUSH1 0x0 DUP3 DUP2 MSTORE PUSH1 0x9 PUSH1 0x20 MSTORE PUSH1 0x40 SWAP1 KECCAK256 SLOAD DUP2 EQ ISZERO JUMPDEST ISZERO PUSH2 0xEA0 JUMPI POP POP PUSH1 0x3 DUP1 SLOAD PUSH1 0xFF PUSH1 0xA0 SHL NOT AND SWAP1 SSTORE JUMP JUMPDEST PUSH1 0x0 DUP3 DUP2 MSTORE PUSH1 0x9 PUSH1 0x20 MSTORE PUSH1 0x40 DUP1 DUP3 KECCAK256 DUP4 SWAP1 SSTORE MLOAD DUP3 SWAP2 DUP5 SWAP2 PUSH32 0x783EE45E8820A8249B1456FF4A715F3BD483B1A59BDC7A49BBC316BBD67A4E2F SWAP2 SWAP1 LOG3 POP POP JUMP JUMPDEST PUSH1 0x0 PUSH2 0xEEB DUP3 CALLDATALOAD PUSH2 0x126E JUMP JUMPDEST SWAP1 POP PUSH1 0x0 PUSH2 0xEFC DUP4 PUSH1 0x20 ADD CALLDATALOAD PUSH2 0x126E JUMP JUMPDEST SWAP1 POP PUSH1 0x0 PUSH2 0xF0D DUP5 PUSH1 0x40 ADD CALLDATALOAD PUSH2 0x126E JUMP JUMPDEST SWAP1 POP PUSH1 0x0 PUSH2 0xF1B DUP6 CALLDATALOAD PUSH2 0xC9E JUMP JUMPDEST PUSH1 0x0 DUP2 DUP2 MSTORE PUSH1 0x9 PUSH1 0x20 SWAP1 DUP2 MSTORE PUSH1 0x40 DUP1 DUP4 KECCAK256 SLOAD DUP2 MLOAD SWAP3 DUP4 ADD DUP10 SWAP1 MSTORE SWAP1 DUP3 ADD DUP8 SWAP1 MSTORE SWAP3 SWAP4 POP PUSH1 0x2 SWAP1 PUSH1 0x60 ADD PUSH1 0x40 DUP1 MLOAD PUSH1 0x1F NOT DUP2 DUP5 SUB ADD DUP2 MSTORE SWAP1 DUP3 SWAP1 MSTORE PUSH2 0xF5E SWAP2 PUSH2 0x1B36 JUMP JUMPDEST PUSH1 0x20 PUSH1 0x40 MLOAD DUP1 DUP4 SUB DUP2 DUP6 GAS STATICCALL ISZERO DUP1 ISZERO PUSH2 0xF7B JUMPI RETURNDATASIZE PUSH1 0x0 DUP1 RETURNDATACOPY RETURNDATASIZE PUSH1 0x0 REVERT JUMPDEST POP POP POP PUSH1 0x40 MLOAD RETURNDATASIZE PUSH1 0x1F NOT PUSH1 0x1F DUP3 ADD AND DUP3 ADD DUP1 PUSH1 0x40 MSTORE POP DUP2 ADD SWAP1 PUSH2 0xF9E SWAP2 SWAP1 PUSH2 0x1B48 JUMP JUMPDEST SWAP1 POP PUSH1 0x2 DUP2 DUP9 PUSH1 0x60 ADD CALLDATALOAD PUSH1 0x40 MLOAD PUSH1 0x20 ADD PUSH2 0xFC2 SWAP3 SWAP2 SWAP1 SWAP2 DUP3 MSTORE PUSH1 0x20 DUP3 ADD MSTORE PUSH1 0x40 ADD SWAP1 JUMP JUMPDEST PUSH1 0x40 DUP1 MLOAD PUSH1 0x1F NOT DUP2 DUP5 SUB ADD DUP2 MSTORE SWAP1 DUP3 SWAP1 MSTORE PUSH2 0xFDC SWAP2 PUSH2 0x1B36 JUMP JUMPDEST PUSH1 0x20 PUSH1 0x40 MLOAD DUP1 DUP4 SUB DUP2 DUP6 GAS STATICCALL ISZERO DUP1 ISZERO PUSH2 0xFF9 JUMPI RETURNDATASIZE PUSH1 0x0 DUP1 RETURNDATACOPY RETURNDATASIZE PUSH1 0x0 REVERT JUMPDEST POP POP POP PUSH1 0x40 MLOAD RETURNDATASIZE PUSH1 0x1F NOT PUSH1 0x1F DUP3 ADD AND DUP3 ADD DUP1 PUSH1 0x40 MSTORE POP DUP2 ADD SWAP1 PUSH2 0x101C SWAP2 SWAP1 PUSH2 0x1B48 JUMP JUMPDEST SWAP1 POP PUSH1 0x2 DUP2 DUP6 PUSH1 0x40 MLOAD PUSH1 0x20 ADD PUSH2 0x103C SWAP3 SWAP2 SWAP1 SWAP2 DUP3 MSTORE PUSH1 0x20 DUP3 ADD MSTORE PUSH1 0x40 ADD SWAP1 JUMP JUMPDEST PUSH1 0x40 DUP1 MLOAD PUSH1 0x1F NOT DUP2 DUP5 SUB ADD DUP2 MSTORE SWAP1 DUP3 SWAP1 MSTORE PUSH2 0x1056 SWAP2 PUSH2 0x1B36 JUMP JUMPDEST PUSH1 0x20 PUSH1 0x40 MLOAD DUP1 DUP4 SUB DUP2 DUP6 GAS STATICCALL ISZERO DUP1 ISZERO PUSH2 0x1073 JUMPI RETURNDATASIZE PUSH1 0x0 DUP1 RETURNDATACOPY RETURNDATASIZE PUSH1 0x0 REVERT JUMPDEST POP POP POP PUSH1 0x40 MLOAD RETURNDATASIZE PUSH1 0x1F NOT PUSH1 0x1F DUP3 ADD AND DUP3 ADD DUP1 PUSH1 0x40 MSTORE POP DUP2 ADD SWAP1 PUSH2 0x1096 SWAP2 SWAP1 PUSH2 0x1B48 JUMP JUMPDEST SWAP1 POP PUSH1 0x2 DUP2 DUP9 PUSH1 0x80 ADD CALLDATALOAD PUSH1 0x40 MLOAD PUSH1 0x20 ADD PUSH2 0x10BA SWAP3 SWAP2 SWAP1 SWAP2 DUP3 MSTORE PUSH1 0x20 DUP3 ADD MSTORE PUSH1 0x40 ADD SWAP1 JUMP JUMPDEST PUSH1 0x40 DUP1 MLOAD PUSH1 0x1F NOT DUP2 DUP5 SUB ADD DUP2 MSTORE SWAP1 DUP3 SWAP1 MSTORE PUSH2 0x10D4 SWAP2 PUSH2 0x1B36 JUMP JUMPDEST PUSH1 0x20 PUSH1 0x40 MLOAD DUP1 DUP4 SUB DUP2 DUP6 GAS STATICCALL ISZERO DUP1 ISZERO PUSH2 0x10F1 JUMPI RETURNDATASIZE PUSH1 0x0 DUP1 RETURNDATACOPY RETURNDATASIZE PUSH1 0x0 REVERT JUMPDEST POP POP POP PUSH1 0x40 MLOAD RETURNDATASIZE PUSH1 0x1F NOT PUSH1 0x1F DUP3 ADD AND DUP3 ADD DUP1 PUSH1 0x40 MSTORE POP DUP2 ADD SWAP1 PUSH2 0x1114 SWAP2 SWAP1 PUSH2 0x1B48 JUMP JUMPDEST SWAP1 POP PUSH1 0x2 DUP2 DUP4 PUSH1 0x40 MLOAD PUSH1 0x20 ADD PUSH2 0x1134 SWAP3 SWAP2 SWAP1 SWAP2 DUP3 MSTORE PUSH1 0x20 DUP3 ADD MSTORE PUSH1 0x40 ADD SWAP1 JUMP JUMPDEST PUSH1 0x40 DUP1 MLOAD PUSH1 0x1F NOT DUP2 DUP5 SUB ADD DUP2 MSTORE SWAP1 DUP3 SWAP1 MSTORE PUSH2 0x114E SWAP2 PUSH2 0x1B36 JUMP JUMPDEST PUSH1 0x20 PUSH1 0x40 MLOAD DUP1 DUP4 SUB DUP2 DUP6 GAS STATICCALL ISZERO DUP1 ISZERO PUSH2 0x116B JUMPI RETURNDATASIZE PUSH1 0x0 DUP1 RETURNDATACOPY RETURNDATASIZE PUSH1 0x0 REVERT JUMPDEST POP POP POP PUSH1 0x40 MLOAD RETURNDATASIZE PUSH1 0x1F NOT PUSH1 0x1F DUP3 ADD AND DUP3 ADD DUP1 PUSH1 0x40 MSTORE POP DUP2 ADD SWAP1 PUSH2 0x118E SWAP2 SWAP1 PUSH2 0x1B48 JUMP JUMPDEST SWAP1 POP PUSH1 0x0 PUSH2 0x119B DUP3 PUSH2 0x126E JUMP JUMPDEST SWAP1 POP PUSH2 0x11AC PUSH1 0x1 PUSH1 0x1 PUSH1 0xFD SHL PUSH2 0x192D JUMP JUMPDEST AND PUSH1 0x0 PUSH2 0x11BC PUSH1 0xA0 DUP11 ADD DUP11 PUSH2 0x196A JUMP JUMPDEST PUSH2 0x11C5 SWAP1 PUSH2 0x1980 JUMP JUMPDEST PUSH1 0x40 DUP1 MLOAD PUSH1 0x20 DUP1 DUP3 ADD DUP4 MSTORE DUP6 DUP3 MSTORE PUSH1 0x1 SLOAD DUP5 MLOAD SWAP2 DUP6 ADD MLOAD DUP5 DUP7 ADD MLOAD PUSH1 0x3 SLOAD SWAP6 MLOAD PUSH4 0x20702F57 PUSH1 0xE0 SHL DUP2 MSTORE SWAP7 SWAP8 POP SWAP4 SWAP6 PUSH1 0x1 PUSH1 0x1 PUSH1 0xA0 SHL SUB SWAP3 DUP4 AND SWAP6 PUSH4 0x20702F57 SWAP6 PUSH2 0x1218 SWAP6 SWAP5 SWAP1 SWAP3 SWAP2 AND SWAP1 PUSH1 0x4 ADD PUSH2 0x1A6F JUMP JUMPDEST PUSH1 0x20 PUSH1 0x40 MLOAD DUP1 DUP4 SUB DUP2 DUP7 GAS STATICCALL ISZERO DUP1 ISZERO PUSH2 0x1235 JUMPI RETURNDATASIZE PUSH1 0x0 DUP1 RETURNDATACOPY RETURNDATASIZE PUSH1 0x0 REVERT JUMPDEST POP POP POP POP PUSH1 0x40 MLOAD RETURNDATASIZE PUSH1 0x1F NOT PUSH1 0x1F DUP3 ADD AND DUP3 ADD DUP1 PUSH1 0x40 MSTORE POP DUP2 ADD SWAP1 PUSH2 0x1259 SWAP2 SWAP1 PUSH2 0x1B14 JUMP JUMPDEST PUSH2 0x1262 JUMPI PUSH1 0x0 DUP1 REVERT JUMPDEST POP POP POP POP POP POP POP POP POP POP JUMP JUMPDEST PUSH1 0x0 PUSH1 0x8 DUP3 PUSH31 0xFF00FF00FF00FF00FF00FF00FF00FF00FF00FF00FF00FF00FF00FF00FF00FF AND SWAP1 SHL PUSH1 0x8 DUP4 PUSH32 0xFF00FF00FF00FF00FF00FF00FF00FF00FF00FF00FF00FF00FF00FF00FF00FF00 AND SWAP1 SHR OR SWAP2 POP PUSH1 0x10 DUP3 PUSH30 0xFFFF0000FFFF0000FFFF0000FFFF0000FFFF0000FFFF0000FFFF0000FFFF AND SWAP1 SHL PUSH1 0x10 DUP4 PUSH32 0xFFFF0000FFFF0000FFFF0000FFFF0000FFFF0000FFFF0000FFFF0000FFFF0000 AND SWAP1 SHR OR SWAP2 POP PUSH1 0x20 DUP3 PUSH28 0xFFFFFFFF00000000FFFFFFFF00000000FFFFFFFF00000000FFFFFFFF AND SWAP1 SHL PUSH1 0x20 DUP4 PUSH32 0xFFFFFFFF00000000FFFFFFFF00000000FFFFFFFF00000000FFFFFFFF00000000 AND SWAP1 SHR OR SWAP2 POP PUSH1 0x40 DUP3 PUSH24 0xFFFFFFFFFFFFFFFF0000000000000000FFFFFFFFFFFFFFFF AND SWAP1 SHL PUSH1 0x40 DUP4 PUSH24 0xFFFFFFFFFFFFFFFF0000000000000000FFFFFFFFFFFFFFFF NOT AND SWAP1 SHR OR SWAP2 POP PUSH1 0x80 DUP3 SWAP1 SHL PUSH1 0x80 DUP4 SWAP1 SHR OR SWAP2 POP DUP2 PUSH1 0x0 SHL SWAP1 POP SWAP2 SWAP1 POP JUMP JUMPDEST PUSH1 0x40 MLOAD DUP1 PUSH2 0x820 ADD PUSH1 0x40 MSTORE DUP1 PUSH1 0x41 SWAP1 PUSH1 0x20 DUP3 MUL DUP1 CALLDATASIZE DUP4 CALLDATACOPY POP SWAP2 SWAP3 SWAP2 POP POP JUMP JUMPDEST PUSH1 0x1 PUSH1 0x1 PUSH1 0xA0 SHL SUB DUP2 AND DUP2 EQ PUSH2 0x941 JUMPI PUSH1 0x0 DUP1 REVERT JUMPDEST DUP1 CALLDATALOAD PUSH2 0xFFFF DUP2 AND DUP2 EQ PUSH2 0x13FC JUMPI PUSH1 0x0 DUP1 REVERT JUMPDEST SWAP2 SWAP1 POP JUMP JUMPDEST PUSH1 0x0 DUP1 PUSH1 0x0 PUSH1 0x60 DUP5 DUP7 SUB SLT ISZERO PUSH2 0x1416 JUMPI PUSH1 0x0 DUP1 REVERT JUMPDEST DUP4 CALLDATALOAD PUSH8 0xFFFFFFFFFFFFFFFF DUP2 GT ISZERO PUSH2 0x142D JUMPI PUSH1 0x0 DUP1 REVERT JUMPDEST DUP5 ADD PUSH1 0xC0 DUP2 DUP8 SUB SLT ISZERO PUSH2 0x143F JUMPI PUSH1 0x0 DUP1 REVERT JUMPDEST SWAP3 POP PUSH1 0x20 DUP5 ADD CALLDATALOAD PUSH2 0x144F DUP2 PUSH2 0x13D5 JUMP JUMPDEST SWAP2 POP PUSH2 0x145D PUSH1 0x40 DUP6 ADD PUSH2 0x13EA JUMP JUMPDEST SWAP1 POP SWAP3 POP SWAP3 POP SWAP3 JUMP JUMPDEST PUSH1 0x0 PUSH1 0x20 DUP3 DUP5 SUB SLT ISZERO PUSH2 0x1478 JUMPI PUSH1 0x0 DUP1 REVERT JUMPDEST DUP2 CALLDATALOAD PUSH2 0x1483 DUP2 PUSH2 0x13D5 JUMP JUMPDEST SWAP4 SWAP3 POP POP POP JUMP JUMPDEST PUSH1 0x0 DUP1 PUSH1 0x0 DUP1 PUSH1 0x80 DUP6 DUP8 SUB SLT ISZERO PUSH2 0x14A0 JUMPI PUSH1 0x0 DUP1 REVERT JUMPDEST PUSH2 0x14A9 DUP6 PUSH2 0x13EA JUMP JUMPDEST SWAP4 POP PUSH2 0x14B7 PUSH1 0x20 DUP7 ADD PUSH2 0x13EA JUMP JUMPDEST SWAP3 POP PUSH1 0x40 DUP6 ADD CALLDATALOAD PUSH8 0xFFFFFFFFFFFFFFFF DUP2 AND DUP2 EQ PUSH2 0x14D4 JUMPI PUSH1 0x0 DUP1 REVERT JUMPDEST SWAP2 POP PUSH1 0x60 DUP6 ADD CALLDATALOAD PUSH2 0x14E4 DUP2 PUSH2 0x13D5 JUMP JUMPDEST SWAP4 SWAP7 SWAP3 SWAP6 POP SWAP1 SWAP4 POP POP JUMP JUMPDEST PUSH1 0x0 PUSH1 0x20 DUP3 DUP5 SUB SLT ISZERO PUSH2 0x1501 JUMPI PUSH1 0x0 DUP1 REVERT JUMPDEST POP CALLDATALOAD SWAP2 SWAP1 POP JUMP JUMPDEST PUSH1 0x0 PUSH1 0x20 DUP3 DUP5 SUB SLT ISZERO PUSH2 0x151A JUMPI PUSH1 0x0 DUP1 REVERT JUMPDEST DUP2 CALLDATALOAD PUSH8 0xFFFFFFFFFFFFFFFF DUP2 GT ISZERO PUSH2 0x1531 JUMPI PUSH1 0x0 DUP1 REVERT JUMPDEST DUP3 ADD PUSH1 0x80 DUP2 DUP6 SUB SLT ISZERO PUSH2 0x1483 JUMPI PUSH1 0x0 DUP1 REVERT JUMPDEST PUSH1 0x0 DUP1 PUSH1 0x40 DUP4 DUP6 SUB SLT ISZERO PUSH2 0x1556 JUMPI PUSH1 0x0 DUP1 REVERT JUMPDEST DUP3 CALLDATALOAD PUSH2 0x1561 DUP2 PUSH2 0x13D5 JUMP JUMPDEST SWAP5 PUSH1 0x20 SWAP4 SWAP1 SWAP4 ADD CALLDATALOAD SWAP4 POP POP POP JUMP JUMPDEST PUSH1 0x0 PUSH1 0x20 DUP3 DUP5 SUB SLT ISZERO PUSH2 0x1581 JUMPI PUSH1 0x0 DUP1 REVERT JUMPDEST DUP2 MLOAD PUSH2 0x1483 DUP2 PUSH2 0x13D5 JUMP JUMPDEST PUSH1 0x0 DUP3 CALLDATALOAD PUSH1 0xBE NOT DUP4 CALLDATASIZE SUB ADD DUP2 SLT PUSH2 0x15A2 JUMPI PUSH1 0x0 DUP1 REVERT JUMPDEST SWAP2 SWAP1 SWAP2 ADD SWAP3 SWAP2 POP POP JUMP JUMPDEST PUSH4 0x4E487B71 PUSH1 0xE0 SHL PUSH1 0x0 MSTORE PUSH1 0x41 PUSH1 0x4 MSTORE PUSH1 0x24 PUSH1 0x0 REVERT JUMPDEST PUSH1 0x40 MLOAD PUSH1 0x60 DUP2 ADD PUSH8 0xFFFFFFFFFFFFFFFF DUP2 GT DUP3 DUP3 LT OR ISZERO PUSH2 0x15E5 JUMPI PUSH2 0x15E5 PUSH2 0x15AC JUMP JUMPDEST PUSH1 0x40 MSTORE SWAP1 JUMP JUMPDEST PUSH1 0x40 MLOAD PUSH1 0x1F DUP3 ADD PUSH1 0x1F NOT AND DUP2 ADD PUSH8 0xFFFFFFFFFFFFFFFF DUP2 GT DUP3 DUP3 LT OR ISZERO PUSH2 0x1614 JUMPI PUSH2 0x1614 PUSH2 0x15AC JUMP JUMPDEST PUSH1 0x40 MSTORE SWAP2 SWAP1 POP JUMP JUMPDEST PUSH1 0x0 PUSH8 0xFFFFFFFFFFFFFFFF DUP3 GT ISZERO PUSH2 0x1636 JUMPI PUSH2 0x1636 PUSH2 0x15AC JUMP JUMPDEST POP PUSH1 0x5 SHL PUSH1 0x20 ADD SWAP1 JUMP JUMPDEST PUSH1 0x0 DUP3 PUSH1 0x1F DUP4 ADD SLT PUSH2 0x1651 JUMPI PUSH1 0x0 DUP1 REVERT JUMPDEST DUP2 CALLDATALOAD PUSH1 0x20 PUSH2 0x1666 PUSH2 0x1661 DUP4 PUSH2 0x161C JUMP JUMPDEST PUSH2 0x15EB JUMP JUMPDEST DUP3 DUP2 MSTORE PUSH1 0x5 SWAP3 SWAP1 SWAP3 SHL DUP5 ADD DUP2 ADD SWAP2 DUP2 DUP2 ADD SWAP1 DUP7 DUP5 GT ISZERO PUSH2 0x1685 JUMPI PUSH1 0x0 DUP1 REVERT JUMPDEST DUP3 DUP7 ADD JUMPDEST DUP5 DUP2 LT ISZERO PUSH2 0x16A0 JUMPI DUP1 CALLDATALOAD DUP4 MSTORE SWAP2 DUP4 ADD SWAP2 DUP4 ADD PUSH2 0x1689 JUMP JUMPDEST POP SWAP7 SWAP6 POP POP POP POP POP POP JUMP JUMPDEST PUSH1 0x0 DUP3 PUSH1 0x1F DUP4 ADD SLT PUSH2 0x16BC JUMPI PUSH1 0x0 DUP1 REVERT JUMPDEST DUP2 CALLDATALOAD PUSH1 0x20 PUSH2 0x16CC PUSH2 0x1661 DUP4 PUSH2 0x161C JUMP JUMPDEST DUP3 DUP2 MSTORE PUSH1 0x5 SWAP3 DUP4 SHL DUP6 ADD DUP3 ADD SWAP3 DUP3 DUP3 ADD SWAP2 SWAP1 DUP8 DUP6 GT ISZERO PUSH2 0x16EB JUMPI PUSH1 0x0 DUP1 REVERT JUMPDEST DUP4 DUP8 ADD JUMPDEST DUP6 DUP2 LT ISZERO PUSH2 0x177F JUMPI DUP1 CALLDATALOAD PUSH8 0xFFFFFFFFFFFFFFFF DUP2 GT ISZERO PUSH2 0x170F JUMPI PUSH1 0x0 DUP1 DUP2 REVERT JUMPDEST DUP9 ADD PUSH1 0x3F DUP2 ADD DUP11 SGT PUSH2 0x1721 JUMPI PUSH1 0x0 DUP1 DUP2 REVERT JUMPDEST DUP6 DUP2 ADD CALLDATALOAD PUSH1 0x40 PUSH2 0x1733 PUSH2 0x1661 DUP4 PUSH2 0x161C JUMP JUMPDEST DUP3 DUP2 MSTORE SWAP2 DUP6 SHL DUP4 ADD DUP2 ADD SWAP2 DUP9 DUP2 ADD SWAP1 DUP14 DUP5 GT ISZERO PUSH2 0x1750 JUMPI PUSH1 0x0 DUP1 DUP2 REVERT JUMPDEST SWAP4 DUP3 ADD SWAP4 JUMPDEST DUP4 DUP6 LT ISZERO PUSH2 0x176E JUMPI DUP5 CALLDATALOAD DUP3 MSTORE SWAP4 DUP10 ADD SWAP4 SWAP1 DUP10 ADD SWAP1 PUSH2 0x1755 JUMP JUMPDEST DUP9 MSTORE POP POP POP SWAP4 DUP6 ADD SWAP4 POP DUP5 ADD PUSH2 0x16EF JUMP JUMPDEST POP SWAP1 SWAP8 SWAP7 POP POP POP POP POP POP POP JUMP JUMPDEST PUSH1 0x0 PUSH1 0x60 DUP3 DUP5 SUB SLT ISZERO PUSH2 0x179E JUMPI PUSH1 0x0 DUP1 REVERT JUMPDEST PUSH2 0x17A6 PUSH2 0x15C2 JUMP JUMPDEST SWAP1 POP DUP2 CALLDATALOAD PUSH8 0xFFFFFFFFFFFFFFFF DUP1 DUP3 GT ISZERO PUSH2 0x17C0 JUMPI PUSH1 0x0 DUP1 REVERT JUMPDEST DUP2 DUP5 ADD SWAP2 POP DUP5 PUSH1 0x1F DUP4 ADD SLT PUSH2 0x17D4 JUMPI PUSH1 0x0 DUP1 REVERT JUMPDEST DUP2 CALLDATALOAD PUSH1 0x20 DUP3 DUP3 GT ISZERO PUSH2 0x17E8 JUMPI PUSH2 0x17E8 PUSH2 0x15AC JUMP JUMPDEST PUSH2 0x17FA PUSH1 0x1F DUP4 ADD PUSH1 0x1F NOT AND DUP3 ADD PUSH2 0x15EB JUMP JUMPDEST DUP3 DUP2 MSTORE DUP8 DUP3 DUP5 DUP8 ADD ADD GT ISZERO PUSH2 0x180E JUMPI PUSH1 0x0 DUP1 REVERT JUMPDEST DUP3 DUP3 DUP7 ADD DUP4 DUP4 ADD CALLDATACOPY PUSH1 0x0 DUP2 DUP5 ADD DUP4 ADD MSTORE DUP6 MSTORE DUP6 DUP2 ADD CALLDATALOAD SWAP4 POP DUP3 DUP5 GT ISZERO PUSH2 0x1833 JUMPI PUSH1 0x0 DUP1 REVERT JUMPDEST PUSH2 0x183F DUP8 DUP6 DUP9 ADD PUSH2 0x1640 JUMP JUMPDEST SWAP1 DUP6 ADD MSTORE POP PUSH1 0x40 DUP5 ADD CALLDATALOAD SWAP2 POP DUP1 DUP3 GT ISZERO PUSH2 0x1858 JUMPI PUSH1 0x0 DUP1 REVERT JUMPDEST POP PUSH2 0x1865 DUP5 DUP3 DUP6 ADD PUSH2 0x16AB JUMP JUMPDEST PUSH1 0x40 DUP4 ADD MSTORE POP SWAP3 SWAP2 POP POP JUMP JUMPDEST PUSH1 0x0 PUSH1 0xC0 DUP3 CALLDATASIZE SUB SLT ISZERO PUSH2 0x1883 JUMPI PUSH1 0x0 DUP1 REVERT JUMPDEST PUSH1 0x40 MLOAD PUSH1 0xC0 DUP2 ADD PUSH8 0xFFFFFFFFFFFFFFFF DUP3 DUP3 LT DUP2 DUP4 GT OR ISZERO PUSH2 0x18A7 JUMPI PUSH2 0x18A7 PUSH2 0x15AC JUMP JUMPDEST DUP2 PUSH1 0x40 MSTORE DUP5 CALLDATALOAD DUP4 MSTORE PUSH1 0x20 DUP6 ADD CALLDATALOAD PUSH1 0x20 DUP5 ADD MSTORE PUSH1 0x40 DUP6 ADD CALLDATALOAD PUSH1 0x40 DUP5 ADD MSTORE PUSH1 0x60 DUP6 ADD CALLDATALOAD PUSH1 0x60 DUP5 ADD MSTORE PUSH1 0x80 DUP6 ADD CALLDATALOAD PUSH1 0x80 DUP5 ADD MSTORE PUSH1 0xA0 DUP6 ADD CALLDATALOAD SWAP2 POP DUP1 DUP3 GT ISZERO PUSH2 0x18EB JUMPI PUSH1 0x0 DUP1 REVERT JUMPDEST POP PUSH2 0x18F8 CALLDATASIZE DUP3 DUP7 ADD PUSH2 0x178C JUMP JUMPDEST PUSH1 0xA0 DUP4 ADD MSTORE POP SWAP3 SWAP2 POP POP JUMP JUMPDEST PUSH4 0x4E487B71 PUSH1 0xE0 SHL PUSH1 0x0 MSTORE PUSH1 0x11 PUSH1 0x4 MSTORE PUSH1 0x24 PUSH1 0x0 REVERT JUMPDEST DUP1 DUP3 ADD DUP1 DUP3 GT ISZERO PUSH2 0xCCA JUMPI PUSH2 0xCCA PUSH2 0x1904 JUMP JUMPDEST DUP2 DUP2 SUB DUP2 DUP2 GT ISZERO PUSH2 0xCCA JUMPI PUSH2 0xCCA PUSH2 0x1904 JUMP JUMPDEST PUSH4 0x4E487B71 PUSH1 0xE0 SHL PUSH1 0x0 MSTORE PUSH1 0x12 PUSH1 0x4 MSTORE PUSH1 0x24 PUSH1 0x0 REVERT JUMPDEST PUSH1 0x0 DUP3 PUSH2 0x1965 JUMPI PUSH2 0x1965 PUSH2 0x1940 JUMP JUMPDEST POP DIV SWAP1 JUMP JUMPDEST PUSH1 0x0 DUP3 CALLDATALOAD PUSH1 0x5E NOT DUP4 CALLDATASIZE SUB ADD DUP2 SLT PUSH2 0x15A2 JUMPI PUSH1 0x0 DUP1 REVERT JUMPDEST PUSH1 0x0 PUSH2 0xCCA CALLDATASIZE DUP4 PUSH2 0x178C JUMP JUMPDEST PUSH1 0x0 DUP3 PUSH2 0x199B JUMPI PUSH2 0x199B PUSH2 0x1940 JUMP JUMPDEST POP MOD SWAP1 JUMP JUMPDEST PUSH4 0x4E487B71 PUSH1 0xE0 SHL PUSH1 0x0 MSTORE PUSH1 0x32 PUSH1 0x4 MSTORE PUSH1 0x24 PUSH1 0x0 REVERT JUMPDEST PUSH1 0x0 PUSH1 0x1 DUP3 ADD PUSH2 0x19C8 JUMPI PUSH2 0x19C8 PUSH2 0x1904 JUMP JUMPDEST POP PUSH1 0x1 ADD SWAP1 JUMP JUMPDEST PUSH1 0x0 JUMPDEST DUP4 DUP2 LT ISZERO PUSH2 0x19EA JUMPI DUP2 DUP2 ADD MLOAD DUP4 DUP3 ADD MSTORE PUSH1 0x20 ADD PUSH2 0x19D2 JUMP JUMPDEST POP POP PUSH1 0x0 SWAP2 ADD MSTORE JUMP JUMPDEST PUSH1 0x0 DUP2 MLOAD DUP1 DUP5 MSTORE PUSH1 0x20 DUP1 DUP6 ADD DUP1 DUP2 SWAP7 POP DUP4 PUSH1 0x5 SHL DUP2 ADD SWAP2 POP DUP3 DUP7 ADD PUSH1 0x0 DUP1 JUMPDEST DUP7 DUP2 LT ISZERO PUSH2 0x1A61 JUMPI DUP4 DUP6 SUB DUP11 MSTORE DUP3 MLOAD DUP1 MLOAD DUP1 DUP8 MSTORE SWAP1 DUP8 ADD SWAP1 DUP8 DUP8 ADD SWAP1 DUP5 JUMPDEST DUP2 DUP2 LT ISZERO PUSH2 0x1A4C JUMPI DUP4 MLOAD DUP4 MSTORE SWAP3 DUP10 ADD SWAP3 SWAP2 DUP10 ADD SWAP2 PUSH1 0x1 ADD PUSH2 0x1A30 JUMP JUMPDEST POP POP SWAP11 DUP8 ADD SWAP11 SWAP6 POP POP SWAP2 DUP6 ADD SWAP2 PUSH1 0x1 ADD PUSH2 0x1A12 JUMP JUMPDEST POP SWAP3 SWAP9 SWAP8 POP POP POP POP POP POP POP POP JUMP JUMPDEST PUSH1 0x80 DUP2 MSTORE PUSH1 0x0 DUP6 MLOAD DUP1 PUSH1 0x80 DUP5 ADD MSTORE PUSH1 0x20 PUSH2 0x1A8F DUP3 PUSH1 0xA0 DUP7 ADD DUP4 DUP12 ADD PUSH2 0x19CF JUMP JUMPDEST PUSH1 0xA0 PUSH1 0x1F NOT PUSH1 0x1F SWAP4 SWAP1 SWAP4 ADD SWAP3 SWAP1 SWAP3 AND DUP5 ADD DUP5 DUP2 SUB DUP4 ADD DUP6 DUP4 ADD MSTORE DUP8 MLOAD SWAP3 DUP2 ADD DUP4 SWAP1 MSTORE DUP8 DUP3 ADD SWAP3 PUSH1 0x0 SWAP2 PUSH1 0xC0 ADD SWAP1 JUMPDEST DUP1 DUP4 LT ISZERO PUSH2 0x1ADD JUMPI DUP5 MLOAD DUP3 MSTORE SWAP4 DUP4 ADD SWAP4 PUSH1 0x1 SWAP3 SWAP1 SWAP3 ADD SWAP2 SWAP1 DUP4 ADD SWAP1 PUSH2 0x1ABD JUMP JUMPDEST POP DUP6 DUP2 SUB PUSH1 0x40 DUP8 ADD MSTORE PUSH2 0x1AF0 DUP2 DUP10 PUSH2 0x19F3 JUMP JUMPDEST SWAP5 POP POP POP POP POP PUSH2 0x1B0B PUSH1 0x60 DUP4 ADD DUP5 PUSH1 0x1 PUSH1 0x1 PUSH1 0xA0 SHL SUB AND SWAP1 MSTORE JUMP JUMPDEST SWAP6 SWAP5 POP POP POP POP POP JUMP JUMPDEST PUSH1 0x0 PUSH1 0x20 DUP3 DUP5 SUB SLT ISZERO PUSH2 0x1B26 JUMPI PUSH1 0x0 DUP1 REVERT JUMPDEST DUP2 MLOAD DUP1 ISZERO ISZERO DUP2 EQ PUSH2 0x1483 JUMPI PUSH1 0x0 DUP1 REVERT JUMPDEST PUSH1 0x0 DUP3 MLOAD PUSH2 0x15A2 DUP2 DUP5 PUSH1 0x20 DUP8 ADD PUSH2 0x19CF JUMP JUMPDEST PUSH1 0x0 PUSH1 0x20 DUP3 DUP5 SUB SLT ISZERO PUSH2 0x1B5A JUMPI PUSH1 0x0 DUP1 REVERT JUMPDEST POP MLOAD SWAP2 SWAP1 POP JUMP INVALID LOG2 PUSH5 0x6970667358 0x22 SLT KECCAK256 BYTE MULMOD SWAP10 SAR 0xD8 0xB1 0xD5 0xD5 SMOD 0x2A DUP2 0xE9 0xB6 DIV SELFDESTRUCT CODESIZE CREATE2 0xA8 GT 0x5C DUP2 PUSH26 0xD0DE8E717905C050BCF264736F6C634300081000330000000000 "},"gasEstimates":{"creation":{"codeDepositCost":"1412600","executionCost":"infinite","totalCost":"infinite"},"external":{"FINALITY_THRESHOLD()":"infinite","GENESIS_TIME()":"infinite","GENESIS_VALIDATORS_ROOT()":"infinite","SECONDS_PER_SLOT()":"infinite","SLOTS_PER_PERIOD()":"infinite","SOURCE_CHAIN_ID()":"infinite","assignJob(uint16,uint16,uint64,address)":"infinite","consistent()":"2417","getFee(uint16,uint16,uint64,address)":"infinite","head()":"2362","headers(uint256)":"2527","layerZeroEndpoint()":"2350","owner()":"2365","renounceOwnership()":"infinite","rotate(((uint256,uint256,uint256,bytes32,bytes32,(bytes,uint256[],int256[][])),bytes32,bytes32,(bytes,uint256[],int256[][])))":"infinite","setLayerZeroEndpoint(address)":"26038","setRotateGate(address)":"26863","setStepGate(address)":"26752","setVerifier(address)":"26774","stateRoots(uint256)":"2526","step((uint256,uint256,uint256,bytes32,bytes32,(bytes,uint256[],int256[][])),address,uint16)":"infinite","syncCommitteePoseidons(uint256)":"2571","timestamps(uint256)":"2461","transferOwnership(address)":"infinite","withdrawFee(address,uint256)":"3947"},"internal":{"getCurrentSlot()":"infinite","getSyncCommitteePeriod(uint256)":"infinite","processStep(struct LightClientStep calldata)":"infinite","setSlotRoots(uint256,bytes32,bytes32)":"94541","setSyncCommitteePoseidon(uint256,bytes32)":"28634","zkLightClientRotate(struct LightClientRotate calldata)":"infinite","zkLightClientStep(struct LightClientStep calldata)":"infinite"}},"methodIdentifiers":{"FINALITY_THRESHOLD()":"da4b05e7","GENESIS_TIME()":"f2882461","GENESIS_VALIDATORS_ROOT()":"a8769acb","SECONDS_PER_SLOT()":"304b9071","SLOTS_PER_PERIOD()":"2073ee70","SOURCE_CHAIN_ID()":"74be2150","assignJob(uint16,uint16,uint64,address)":"c5e193cd","consistent()":"2bcccca5","getFee(uint16,uint16,uint64,address)":"5553fb8e","head()":"8f7dcfa3","headers(uint256)":"56f90d79","layerZeroEndpoint()":"07968db1","owner()":"8da5cb5b","renounceOwnership()":"715018a6","rotate(((uint256,uint256,uint256,bytes32,bytes32,(bytes,uint256[],int256[][])),bytes32,bytes32,(bytes,uint256[],int256[][])))":"deb0b3c6","setLayerZeroEndpoint(address)":"95b9783c","setRotateGate(address)":"4a732408","setStepGate(address)":"4f96cf28","setVerifier(address)":"5437988d","stateRoots(uint256)":"f4cac30d","step((uint256,uint256,uint256,bytes32,bytes32,(bytes,uint256[],int256[][])),address,uint16)":"205ca226","syncCommitteePoseidons(uint256)":"b34711ab","timestamps(uint256)":"8bc33af3","transferOwnership(address)":"f2fde38b","withdrawFee(address,uint256)":"fd9be522"}},"storageLayout":{"storage":[{"astId":26,"contract":"contracts/ethereum/EthereumLightClient.sol:EthereumLightClient","label":"_owner","offset":0,"slot":"0","type":"t_address"},{"astId":233,"contract":"contracts/ethereum/EthereumLightClient.sol:EthereumLightClient","label":"verifier","offset":0,"slot":"1","type":"t_address"},{"astId":235,"contract":"contracts/ethereum/EthereumLightClient.sol:EthereumLightClient","label":"rotateGate","offset":0,"slot":"2","type":"t_address"},{"astId":237,"contract":"contracts/ethereum/EthereumLightClient.sol:EthereumLightClient","label":"stepGate","offset":0,"slot":"3","type":"t_address"},{"astId":241,"contract":"contracts/ethereum/EthereumLightClient.sol:EthereumLightClient","label":"consistent","offset":20,"slot":"3","type":"t_bool"},{"astId":245,"contract":"contracts/ethereum/EthereumLightClient.sol:EthereumLightClient","label":"head","offset":0,"slot":"4","type":"t_uint256"},{"astId":248,"contract":"contracts/ethereum/EthereumLightClient.sol:EthereumLightClient","label":"layerZeroEndpoint","offset":0,"slot":"5","type":"t_contract(ILayerZeroEndpoint)1150"},{"astId":253,"contract":"contracts/ethereum/EthereumLightClient.sol:EthereumLightClient","label":"headers","offset":0,"slot":"6","type":"t_mapping(t_uint256,t_bytes32)"},{"astId":258,"contract":"contracts/ethereum/EthereumLightClient.sol:EthereumLightClient","label":"timestamps","offset":0,"slot":"7","type":"t_mapping(t_uint256,t_uint256)"},{"astId":263,"contract":"contracts/ethereum/EthereumLightClient.sol:EthereumLightClient","label":"stateRoots","offset":0,"slot":"8","type":"t_mapping(t_uint256,t_bytes32)"},{"astId":268,"contract":"contracts/ethereum/EthereumLightClient.sol:EthereumLightClient","label":"syncCommitteePoseidons","offset":0,"slot":"9","type":"t_mapping(t_uint256,t_bytes32)"}],"types":{"t_address":{"encoding":"inplace","label":"address","numberOfBytes":"20"},"t_bool":{"encoding":"inplace","label":"bool","numberOfBytes":"1"},"t_bytes32":{"encoding":"inplace","label":"bytes32","numberOfBytes":"32"},"t_contract(ILayerZeroEndpoint)1150":{"encoding":"inplace","label":"contract ILayerZeroEndpoint","numberOfBytes":"20"},"t_mapping(t_uint256,t_bytes32)":{"encoding":"mapping","key":"t_uint256","label":"mapping(uint256 => bytes32)","numberOfBytes":"32","value":"t_bytes32"},"t_mapping(t_uint256,t_uint256)":{"encoding":"mapping","key":"t_uint256","label":"mapping(uint256 => uint256)","numberOfBytes":"32","value":"t_uint256"},"t_uint256":{"encoding":"inplace","label":"uint256","numberOfBytes":"32"}}},"userdoc":{"kind":"user","methods":{"consistent()":{"notice":"Whether the light client has had conflicting variables for the same slot."},"head()":{"notice":"The latest slot the light client has a finalized header for."},"headers(uint256)":{"notice":"Maps from a slot to a beacon block header root."},"rotate(((uint256,uint256,uint256,bytes32,bytes32,(bytes,uint256[],int256[][])),bytes32,bytes32,(bytes,uint256[],int256[][])))":{"notice":"Sets the sync committee for the next sync committeee period."},"stateRoots(uint256)":{"notice":"Maps from a slot to the current finalized state root."},"step((uint256,uint256,uint256,bytes32,bytes32,(bytes,uint256[],int256[][])),address,uint16)":{"notice":"Function is called by ZK-oracle !!!!Updates the head of the light client to the provided slot."},"syncCommitteePoseidons(uint256)":{"notice":"Maps from a period to the poseidon commitment for the sync committee."},"timestamps(uint256)":{"notice":"Maps from a slot to the timestamp of when the headers mapping was updated with slot as a key"}},"notice":"Uses Ethereum 2's Sync Committee Protocol to keep up-to-date with block headers from a         Beacon Chain. This is done in a gas-efficient manner using zero-knowledge proofs.","version":1}}}}