{
  "_format": "hh-sol-artifact-1",
  "contractName": "LoremIpsumAccess",
  "sourceName": "contracts/amb/LoremIpsumAccess.sol",
  "abi": [
    {
      "anonymous": false,
      "inputs": [
        {
          "indexed": true,
          "internalType": "uint32",
          "name": "chainId",
          "type": "uint32"
        }
      ],
      "name": "Freeze",
      "type": "event"
    },
    {
      "anonymous": false,
      "inputs": [],
      "name": "FreezeAll",
      "type": "event"
    },
    {
      "anonymous": false,
      "inputs": [
        {
          "indexed": false,
          "internalType": "uint8",
          "name": "version",
          "type": "uint8"
        }
      ],
      "name": "Initialized",
      "type": "event"
    },
    {
      "anonymous": false,
      "inputs": [
        {
          "indexed": true,
          "internalType": "bytes32",
          "name": "role",
          "type": "bytes32"
        },
        {
          "indexed": true,
          "internalType": "bytes32",
          "name": "previousAdminRole",
          "type": "bytes32"
        },
        {
          "indexed": true,
          "internalType": "bytes32",
          "name": "newAdminRole",
          "type": "bytes32"
        }
      ],
      "name": "RoleAdminChanged",
      "type": "event"
    },
    {
      "anonymous": false,
      "inputs": [
        {
          "indexed": true,
          "internalType": "bytes32",
          "name": "role",
          "type": "bytes32"
        },
        {
          "indexed": true,
          "internalType": "address",
          "name": "account",
          "type": "address"
        },
        {
          "indexed": true,
          "internalType": "address",
          "name": "sender",
          "type": "address"
        }
      ],
      "name": "RoleGranted",
      "type": "event"
    },
    {
      "anonymous": false,
      "inputs": [
        {
          "indexed": true,
          "internalType": "bytes32",
          "name": "role",
          "type": "bytes32"
        },
        {
          "indexed": true,
          "internalType": "address",
          "name": "account",
          "type": "address"
        },
        {
          "indexed": true,
          "internalType": "address",
          "name": "sender",
          "type": "address"
        }
      ],
      "name": "RoleRevoked",
      "type": "event"
    },
    {
      "anonymous": false,
      "inputs": [
        {
          "indexed": false,
          "internalType": "bool",
          "name": "enabled",
          "type": "bool"
        }
      ],
      "name": "SendingEnabled",
      "type": "event"
    },
    {
      "anonymous": false,
      "inputs": [
        {
          "indexed": true,
          "internalType": "uint32",
          "name": "chainId",
          "type": "uint32"
        },
        {
          "indexed": false,
          "internalType": "address",
          "name": "lightClient",
          "type": "address"
        },
        {
          "indexed": false,
          "internalType": "address",
          "name": "broadcaster",
          "type": "address"
        }
      ],
      "name": "SetLightClientAndBroadcaster",
      "type": "event"
    },
    {
      "anonymous": false,
      "inputs": [
        {
          "indexed": true,
          "internalType": "uint32",
          "name": "chainId",
          "type": "uint32"
        }
      ],
      "name": "SourceChainAdded",
      "type": "event"
    },
    {
      "anonymous": false,
      "inputs": [
        {
          "indexed": true,
          "internalType": "uint32",
          "name": "chainId",
          "type": "uint32"
        }
      ],
      "name": "Unfreeze",
      "type": "event"
    },
    {
      "anonymous": false,
      "inputs": [],
      "name": "UnfreezeAll",
      "type": "event"
    },
    {
      "inputs": [],
      "name": "DEFAULT_ADMIN_ROLE",
      "outputs": [
        {
          "internalType": "bytes32",
          "name": "",
          "type": "bytes32"
        }
      ],
      "stateMutability": "view",
      "type": "function"
    },
    {
      "inputs": [],
      "name": "GUARDIAN_ROLE",
      "outputs": [
        {
          "internalType": "bytes32",
          "name": "",
          "type": "bytes32"
        }
      ],
      "stateMutability": "view",
      "type": "function"
    },
    {
      "inputs": [],
      "name": "TIMELOCK_ROLE",
      "outputs": [
        {
          "internalType": "bytes32",
          "name": "",
          "type": "bytes32"
        }
      ],
      "stateMutability": "view",
      "type": "function"
    },
    {
      "inputs": [
        {
          "internalType": "uint32",
          "name": "",
          "type": "uint32"
        }
      ],
      "name": "broadcasters",
      "outputs": [
        {
          "internalType": "address",
          "name": "",
          "type": "address"
        }
      ],
      "stateMutability": "view",
      "type": "function"
    },
    {
      "inputs": [
        {
          "internalType": "uint32",
          "name": "chainId",
          "type": "uint32"
        }
      ],
      "name": "freeze",
      "outputs": [],
      "stateMutability": "nonpayable",
      "type": "function"
    },
    {
      "inputs": [],
      "name": "freezeAll",
      "outputs": [],
      "stateMutability": "nonpayable",
      "type": "function"
    },
    {
      "inputs": [
        {
          "internalType": "uint32",
          "name": "",
          "type": "uint32"
        }
      ],
      "name": "frozen",
      "outputs": [
        {
          "internalType": "bool",
          "name": "",
          "type": "bool"
        }
      ],
      "stateMutability": "view",
      "type": "function"
    },
    {
      "inputs": [
        {
          "internalType": "bytes32",
          "name": "role",
          "type": "bytes32"
        }
      ],
      "name": "getRoleAdmin",
      "outputs": [
        {
          "internalType": "bytes32",
          "name": "",
          "type": "bytes32"
        }
      ],
      "stateMutability": "view",
      "type": "function"
    },
    {
      "inputs": [
        {
          "internalType": "bytes32",
          "name": "role",
          "type": "bytes32"
        },
        {
          "internalType": "address",
          "name": "account",
          "type": "address"
        }
      ],
      "name": "grantRole",
      "outputs": [],
      "stateMutability": "nonpayable",
      "type": "function"
    },
    {
      "inputs": [
        {
          "internalType": "bytes32",
          "name": "role",
          "type": "bytes32"
        },
        {
          "internalType": "address",
          "name": "account",
          "type": "address"
        }
      ],
      "name": "hasRole",
      "outputs": [
        {
          "internalType": "bool",
          "name": "",
          "type": "bool"
        }
      ],
      "stateMutability": "view",
      "type": "function"
    },
    {
      "inputs": [
        {
          "internalType": "uint32",
          "name": "",
          "type": "uint32"
        }
      ],
      "name": "lightClients",
      "outputs": [
        {
          "internalType": "contract IProtocolState",
          "name": "",
          "type": "address"
        }
      ],
      "stateMutability": "view",
      "type": "function"
    },
    {
      "inputs": [
        {
          "internalType": "bytes32",
          "name": "",
          "type": "bytes32"
        }
      ],
      "name": "messageStatus",
      "outputs": [
        {
          "internalType": "enum MessageStatus",
          "name": "",
          "type": "uint8"
        }
      ],
      "stateMutability": "view",
      "type": "function"
    },
    {
      "inputs": [],
      "name": "nonce",
      "outputs": [
        {
          "internalType": "uint64",
          "name": "",
          "type": "uint64"
        }
      ],
      "stateMutability": "view",
      "type": "function"
    },
    {
      "inputs": [
        {
          "internalType": "bytes32",
          "name": "role",
          "type": "bytes32"
        },
        {
          "internalType": "address",
          "name": "account",
          "type": "address"
        }
      ],
      "name": "renounceRole",
      "outputs": [],
      "stateMutability": "nonpayable",
      "type": "function"
    },
    {
      "inputs": [
        {
          "internalType": "bytes32",
          "name": "role",
          "type": "bytes32"
        },
        {
          "internalType": "address",
          "name": "account",
          "type": "address"
        }
      ],
      "name": "revokeRole",
      "outputs": [],
      "stateMutability": "nonpayable",
      "type": "function"
    },
    {
      "inputs": [],
      "name": "sendingEnabled",
      "outputs": [
        {
          "internalType": "bool",
          "name": "",
          "type": "bool"
        }
      ],
      "stateMutability": "view",
      "type": "function"
    },
    {
      "inputs": [
        {
          "internalType": "uint32",
          "name": "chainId",
          "type": "uint32"
        },
        {
          "internalType": "address",
          "name": "lightclient",
          "type": "address"
        },
        {
          "internalType": "address",
          "name": "broadcaster",
          "type": "address"
        }
      ],
      "name": "setLightClientAndBroadcaster",
      "outputs": [],
      "stateMutability": "nonpayable",
      "type": "function"
    },
    {
      "inputs": [
        {
          "internalType": "bool",
          "name": "enabled",
          "type": "bool"
        }
      ],
      "name": "setSendingEnabled",
      "outputs": [],
      "stateMutability": "nonpayable",
      "type": "function"
    },
    {
      "inputs": [
        {
          "internalType": "uint256",
          "name": "",
          "type": "uint256"
        }
      ],
      "name": "sourceChainIds",
      "outputs": [
        {
          "internalType": "uint32",
          "name": "",
          "type": "uint32"
        }
      ],
      "stateMutability": "view",
      "type": "function"
    },
    {
      "inputs": [
        {
          "internalType": "bytes32",
          "name": "",
          "type": "bytes32"
        }
      ],
      "name": "storageRootCache",
      "outputs": [
        {
          "internalType": "bytes32",
          "name": "",
          "type": "bytes32"
        }
      ],
      "stateMutability": "view",
      "type": "function"
    },
    {
      "inputs": [
        {
          "internalType": "bytes4",
          "name": "interfaceId",
          "type": "bytes4"
        }
      ],
      "name": "supportsInterface",
      "outputs": [
        {
          "internalType": "bool",
          "name": "",
          "type": "bool"
        }
      ],
      "stateMutability": "view",
      "type": "function"
    },
    {
      "inputs": [
        {
          "internalType": "uint32",
          "name": "chainId",
          "type": "uint32"
        }
      ],
      "name": "unfreeze",
      "outputs": [],
      "stateMutability": "nonpayable",
      "type": "function"
    },
    {
      "inputs": [],
      "name": "unfreezeAll",
      "outputs": [],
      "stateMutability": "nonpayable",
      "type": "function"
    },
    {
      "inputs": [],
      "name": "version",
      "outputs": [
        {
          "internalType": "uint8",
          "name": "",
          "type": "uint8"
        }
      ],
      "stateMutability": "view",
      "type": "function"
    }
  ],
  "bytecode": "0x608060405234801561001057600080fd5b5061115b806100206000396000f3fe608060405234801561001057600080fd5b50600436106101585760003560e01c80637599735c116100c35780639efeff1c1161007c5780639efeff1c14610359578063a217fddf14610381578063affed0e014610389578063d547741f146103bb578063ed762d44146103ce578063f288a2e2146103e157600080fd5b80637599735c146102cf5780638d080d1d146102f857806391cd8bfd1461031857806391d148541461032b57806399464c891461033e5780639a2ed2031461034657600080fd5b806336ae7c181161011557806336ae7c18146102075780633c6cf4731461022a5780633e99e9ce1461025a57806354fd4d501461026757806359f897871461028657806366c5c4a0146102c757600080fd5b806301ffc9a71461015d5780631f3d25a914610185578063248a9ca31461019a57806324ea54f4146101cc5780632f2ff15d146101e157806336568abe146101f4575b600080fd5b61017061016b366004610dd5565b610408565b60405190151581526020015b60405180910390f35b610198610193366004610e18565b61043f565b005b6101be6101a8366004610e33565b6000908152610103602052604090206001015490565b60405190815260200161017c565b6101be60008051602061110683398151915281565b6101986101ef366004610e63565b6104c2565b610198610202366004610e63565b6104ed565b610170610215366004610e18565b60366020526000908152604090205460ff1681565b61024d610238366004610e33565b60376020526000908152604090205460ff1681565b60405161017c9190610e8f565b6000546101709060ff1681565b606b546102749060ff1681565b60405160ff909116815260200161017c565b6102af610294366004610e18565b6035602052600090815260409020546001600160a01b031681565b6040516001600160a01b03909116815260200161017c565b61019861056b565b6102af6102dd366004610e18565b6034602052600090815260409020546001600160a01b031681565b6101be610306366004610e33565b60386020526000908152604090205481565b610198610326366004610eb7565b610650565b610170610339366004610e63565b610862565b61019861088e565b610198610354366004610e18565b610973565b61036c610367366004610e33565b6109f0565b60405163ffffffff909116815260200161017c565b6101be600081565b6000546103a290610100900467ffffffffffffffff1681565b60405167ffffffffffffffff909116815260200161017c565b6101986103c9366004610e63565b610a2a565b6101986103dc366004610efa565b610a50565b6101be7ff66846415d2bf9eabda9e84793ff9c0ea96d87f50fc41e66aa16469c6a442f0581565b60006001600160e01b03198216637965db0b60e01b148061043957506301ffc9a760e01b6001600160e01b03198316145b92915050565b61045760008051602061110683398151915233610862565b61047c5760405162461bcd60e51b815260040161047390610f1c565b60405180910390fd5b63ffffffff8116600081815260366020526040808220805460ff19169055517f9fd67bd682613b07687b42f99d8b24402d09feabb75df93abdb26b8fcf9845839190a250565b600082815261010360205260409020600101546104de81610acb565b6104e88383610ad8565b505050565b6001600160a01b038116331461055d5760405162461bcd60e51b815260206004820152602f60248201527f416363657373436f6e74726f6c3a2063616e206f6e6c792072656e6f756e636560448201526e103937b632b9903337b91039b2b63360891b6064820152608401610473565b6105678282610b5f565b5050565b61058360008051602061110683398151915233610862565b61059f5760405162461bcd60e51b815260040161047390610f1c565b60005b60335463ffffffff821610156106245760006036600060338463ffffffff16815481106105d1576105d1610f72565b6000918252602080832060088304015460079092166004026101000a90910463ffffffff1683528201929092526040019020805460ff19169115159190911790558061061c81610f9e565b9150506105a2565b506040517fe6fdbf73945dd61794a752b9181ea29f77170a7b1ffd37e0a7ff9d2c6f7258b990600090a1565b61067a7ff66846415d2bf9eabda9e84793ff9c0ea96d87f50fc41e66aa16469c6a442f0533610862565b6106e55760405162461bcd60e51b815260206004820152603660248201527f4c6f72656d497073756d526f757465723a206f6e6c792074696d656c6f636b2060448201527531b0b71031b0b636103a3434b990333ab731ba34b7b760511b6064820152608401610473565b6000805b603354811015610751578463ffffffff166033828154811061070d5761070d610f72565b6000918252602090912060088204015460079091166004026101000a900463ffffffff160361073f5760019150610751565b8061074981610fc1565b9150506106e9565b50806107da57603380546001810182556000918252600881047f82a75bdeeae8604d839476ae9efd8b0e15aa447e21bfd7f41283bb54e22c9a8201805463ffffffff80891660046007909516949094026101000a84810291021990911617905560405190917f65a791dc0a39717013964ace2b78f8307f275c293b7fdb425346ce8e18cb318891a25b63ffffffff8416600081815260346020908152604080832080546001600160a01b038981166001600160a01b031992831681179093556035855294839020805495891695909116851790558151908152918201929092527f0205eaadbbed4fbe918b2a594d41bceb212a89010cc678c6762b18d65679b2ef910160405180910390a250505050565b6000918252610103602090815260408084206001600160a01b0393909316845291905290205460ff1690565b6108a660008051602061110683398151915233610862565b6108c25760405162461bcd60e51b815260040161047390610f1c565b60005b60335463ffffffff821610156109475760016036600060338463ffffffff16815481106108f4576108f4610f72565b6000918252602080832060088304015460079092166004026101000a90910463ffffffff1683528201929092526040019020805460ff19169115159190911790558061093f81610f9e565b9150506108c5565b506040517f61340a1b154d5d21d259a74bf95379201799b9d12cc6509bb46cb56dc281df5590600090a1565b61098b60008051602061110683398151915233610862565b6109a75760405162461bcd60e51b815260040161047390610f1c565b63ffffffff8116600081815260366020526040808220805460ff19166001179055517ff6cf9095f1dcea2429c26c832cbcc084fa0a1692b2c301601edd75b9d83520b29190a250565b60338181548110610a0057600080fd5b9060005260206000209060089182820401919006600402915054906101000a900463ffffffff1681565b60008281526101036020526040902060010154610a4681610acb565b6104e88383610b5f565b610a6860008051602061110683398151915233610862565b610a845760405162461bcd60e51b815260040161047390610f1c565b6000805460ff19168215159081179091556040519081527f3eea1dc6ce990571e1081137b38c853529a3893b52e9719a48a2f4ac5e3a956c9060200160405180910390a150565b610ad58133610bc7565b50565b610ae28282610862565b610567576000828152610103602090815260408083206001600160a01b03851684529091529020805460ff19166001179055610b1b3390565b6001600160a01b0316816001600160a01b0316837f2f8788117e7eff1d82e926ec794901d17c78024a50270940304540a733656f0d60405160405180910390a45050565b610b698282610862565b15610567576000828152610103602090815260408083206001600160a01b0385168085529252808320805460ff1916905551339285917ff6391f5c32d9c69d2a47ea670b442974b53935d1edc7fd64eb21e047a839171b9190a45050565b610bd18282610862565b61056757610bde81610c20565b610be9836020610c32565b604051602001610bfa929190610ffe565b60408051601f198184030181529082905262461bcd60e51b825261047391600401611073565b60606104396001600160a01b03831660145b60606000610c418360026110a6565b610c4c9060026110c5565b67ffffffffffffffff811115610c6457610c646110d8565b6040519080825280601f01601f191660200182016040528015610c8e576020820181803683370190505b509050600360fc1b81600081518110610ca957610ca9610f72565b60200101906001600160f81b031916908160001a905350600f60fb1b81600181518110610cd857610cd8610f72565b60200101906001600160f81b031916908160001a9053506000610cfc8460026110a6565b610d079060016110c5565b90505b6001811115610d7f576f181899199a1a9b1b9c1cb0b131b232b360811b85600f1660108110610d3b57610d3b610f72565b1a60f81b828281518110610d5157610d51610f72565b60200101906001600160f81b031916908160001a90535060049490941c93610d78816110ee565b9050610d0a565b508315610dce5760405162461bcd60e51b815260206004820181905260248201527f537472696e67733a20686578206c656e67746820696e73756666696369656e746044820152606401610473565b9392505050565b600060208284031215610de757600080fd5b81356001600160e01b031981168114610dce57600080fd5b803563ffffffff81168114610e1357600080fd5b919050565b600060208284031215610e2a57600080fd5b610dce82610dff565b600060208284031215610e4557600080fd5b5035919050565b80356001600160a01b0381168114610e1357600080fd5b60008060408385031215610e7657600080fd5b82359150610e8660208401610e4c565b90509250929050565b6020810160038310610eb157634e487b7160e01b600052602160045260246000fd5b91905290565b600080600060608486031215610ecc57600080fd5b610ed584610dff565b9250610ee360208501610e4c565b9150610ef160408501610e4c565b90509250925092565b600060208284031215610f0c57600080fd5b81358015158114610dce57600080fd5b60208082526036908201527f4c6f72656d497073756d526f757465723a206f6e6c7920677561726469616e2060408201527531b0b71031b0b636103a3434b990333ab731ba34b7b760511b606082015260800190565b634e487b7160e01b600052603260045260246000fd5b634e487b7160e01b600052601160045260246000fd5b600063ffffffff808316818103610fb757610fb7610f88565b6001019392505050565b600060018201610fd357610fd3610f88565b5060010190565b60005b83811015610ff5578181015183820152602001610fdd565b50506000910152565b7f416363657373436f6e74726f6c3a206163636f756e7420000000000000000000815260008351611036816017850160208801610fda565b7001034b99036b4b9b9b4b733903937b6329607d1b6017918401918201528351611067816028840160208801610fda565b01602801949350505050565b6020815260008251806020840152611092816040850160208701610fda565b601f01601f19169190910160400192915050565b60008160001904831182151516156110c0576110c0610f88565b500290565b8082018082111561043957610439610f88565b634e487b7160e01b600052604160045260246000fd5b6000816110fd576110fd610f88565b50600019019056fe55435dd261a4b9b3364963f7738a7a662ad9c84396d64be3365284bb7f0a5041a2646970667358221220a16c3711deab5c3def3358260866dc34f3149487816e23159ad1cf46e6e9cbe164736f6c63430008100033",
  "linkReferences": {},
  "deployedLinkReferences": {}
}