{
  "_format": "hh-sol-artifact-1",
  "contractName": "EthereumLightClient",
  "sourceName": "contracts/ethereum/EthereumLightClient.sol",
  "abi": [
    {
      "inputs": [
        {
          "internalType": "address",
          "name": "placeholderVerifier",
          "type": "address"
        },
        {
          "internalType": "address",
          "name": "step",
          "type": "address"
        },
        {
          "internalType": "address",
          "name": "rotate",
          "type": "address"
        },
        {
          "internalType": "bytes32",
          "name": "genesisValidatorsRoot",
          "type": "bytes32"
        },
        {
          "internalType": "uint256",
          "name": "genesisTime",
          "type": "uint256"
        },
        {
          "internalType": "uint256",
          "name": "secondsPerSlot",
          "type": "uint256"
        },
        {
          "internalType": "uint256",
          "name": "slotsPerPeriod",
          "type": "uint256"
        },
        {
          "internalType": "uint256",
          "name": "syncCommitteePeriod",
          "type": "uint256"
        },
        {
          "internalType": "bytes32",
          "name": "syncCommitteePoseidon",
          "type": "bytes32"
        },
        {
          "internalType": "uint32",
          "name": "sourceChainId",
          "type": "uint32"
        },
        {
          "internalType": "uint16",
          "name": "finalityThreshold",
          "type": "uint16"
        },
        {
          "internalType": "address",
          "name": "_layerZeroEndpoint",
          "type": "address"
        }
      ],
      "stateMutability": "nonpayable",
      "type": "constructor"
    },
    {
      "anonymous": false,
      "inputs": [
        {
          "indexed": true,
          "internalType": "uint256",
          "name": "slot",
          "type": "uint256"
        },
        {
          "indexed": true,
          "internalType": "bytes32",
          "name": "root",
          "type": "bytes32"
        }
      ],
      "name": "HeadUpdate",
      "type": "event"
    },
    {
      "anonymous": false,
      "inputs": [
        {
          "indexed": false,
          "internalType": "address",
          "name": "oldLayerZeroEndpoint",
          "type": "address"
        },
        {
          "indexed": false,
          "internalType": "address",
          "name": "newLayerZeroEndpoint",
          "type": "address"
        }
      ],
      "name": "ModLayerZeroEndpoint",
      "type": "event"
    },
    {
      "anonymous": false,
      "inputs": [
        {
          "indexed": false,
          "internalType": "uint16",
          "name": "dstChainId",
          "type": "uint16"
        },
        {
          "indexed": false,
          "internalType": "uint16",
          "name": "proofType",
          "type": "uint16"
        },
        {
          "indexed": false,
          "internalType": "uint256",
          "name": "blockConfirmations",
          "type": "uint256"
        },
        {
          "indexed": false,
          "internalType": "address",
          "name": "ua",
          "type": "address"
        },
        {
          "indexed": false,
          "internalType": "uint256",
          "name": "fee",
          "type": "uint256"
        }
      ],
      "name": "OracleNotified",
      "type": "event"
    },
    {
      "anonymous": false,
      "inputs": [
        {
          "indexed": true,
          "internalType": "address",
          "name": "previousOwner",
          "type": "address"
        },
        {
          "indexed": true,
          "internalType": "address",
          "name": "newOwner",
          "type": "address"
        }
      ],
      "name": "OwnershipTransferred",
      "type": "event"
    },
    {
      "anonymous": false,
      "inputs": [
        {
          "indexed": true,
          "internalType": "uint256",
          "name": "period",
          "type": "uint256"
        },
        {
          "indexed": true,
          "internalType": "bytes32",
          "name": "root",
          "type": "bytes32"
        }
      ],
      "name": "SyncCommitteeUpdate",
      "type": "event"
    },
    {
      "anonymous": false,
      "inputs": [
        {
          "indexed": false,
          "internalType": "address",
          "name": "receiver",
          "type": "address"
        },
        {
          "indexed": false,
          "internalType": "uint256",
          "name": "amount",
          "type": "uint256"
        }
      ],
      "name": "WithdrawFee",
      "type": "event"
    },
    {
      "inputs": [],
      "name": "FINALITY_THRESHOLD",
      "outputs": [
        {
          "internalType": "uint16",
          "name": "",
          "type": "uint16"
        }
      ],
      "stateMutability": "view",
      "type": "function"
    },
    {
      "inputs": [],
      "name": "GENESIS_TIME",
      "outputs": [
        {
          "internalType": "uint256",
          "name": "",
          "type": "uint256"
        }
      ],
      "stateMutability": "view",
      "type": "function"
    },
    {
      "inputs": [],
      "name": "GENESIS_VALIDATORS_ROOT",
      "outputs": [
        {
          "internalType": "bytes32",
          "name": "",
          "type": "bytes32"
        }
      ],
      "stateMutability": "view",
      "type": "function"
    },
    {
      "inputs": [],
      "name": "SECONDS_PER_SLOT",
      "outputs": [
        {
          "internalType": "uint256",
          "name": "",
          "type": "uint256"
        }
      ],
      "stateMutability": "view",
      "type": "function"
    },
    {
      "inputs": [],
      "name": "SLOTS_PER_PERIOD",
      "outputs": [
        {
          "internalType": "uint256",
          "name": "",
          "type": "uint256"
        }
      ],
      "stateMutability": "view",
      "type": "function"
    },
    {
      "inputs": [],
      "name": "SOURCE_CHAIN_ID",
      "outputs": [
        {
          "internalType": "uint32",
          "name": "",
          "type": "uint32"
        }
      ],
      "stateMutability": "view",
      "type": "function"
    },
    {
      "inputs": [
        {
          "internalType": "uint16",
          "name": "_dstChainId",
          "type": "uint16"
        },
        {
          "internalType": "uint16",
          "name": "_proofType",
          "type": "uint16"
        },
        {
          "internalType": "uint64",
          "name": "_outboundBlockConfirmation",
          "type": "uint64"
        },
        {
          "internalType": "address",
          "name": "_userApplication",
          "type": "address"
        }
      ],
      "name": "assignJob",
      "outputs": [
        {
          "internalType": "uint256",
          "name": "price",
          "type": "uint256"
        }
      ],
      "stateMutability": "nonpayable",
      "type": "function"
    },
    {
      "inputs": [],
      "name": "consistent",
      "outputs": [
        {
          "internalType": "bool",
          "name": "",
          "type": "bool"
        }
      ],
      "stateMutability": "view",
      "type": "function"
    },
    {
      "inputs": [
        {
          "internalType": "uint16",
          "name": "_dstChainId",
          "type": "uint16"
        },
        {
          "internalType": "uint16",
          "name": "_proofType",
          "type": "uint16"
        },
        {
          "internalType": "uint64",
          "name": "_outboundBlockConfirmation",
          "type": "uint64"
        },
        {
          "internalType": "address",
          "name": "_userApplication",
          "type": "address"
        }
      ],
      "name": "getFee",
      "outputs": [
        {
          "internalType": "uint256",
          "name": "price",
          "type": "uint256"
        }
      ],
      "stateMutability": "view",
      "type": "function"
    },
    {
      "inputs": [],
      "name": "head",
      "outputs": [
        {
          "internalType": "uint256",
          "name": "",
          "type": "uint256"
        }
      ],
      "stateMutability": "view",
      "type": "function"
    },
    {
      "inputs": [
        {
          "internalType": "uint256",
          "name": "",
          "type": "uint256"
        }
      ],
      "name": "headers",
      "outputs": [
        {
          "internalType": "bytes32",
          "name": "",
          "type": "bytes32"
        }
      ],
      "stateMutability": "view",
      "type": "function"
    },
    {
      "inputs": [],
      "name": "layerZeroEndpoint",
      "outputs": [
        {
          "internalType": "contract ILayerZeroEndpoint",
          "name": "",
          "type": "address"
        }
      ],
      "stateMutability": "view",
      "type": "function"
    },
    {
      "inputs": [],
      "name": "owner",
      "outputs": [
        {
          "internalType": "address",
          "name": "",
          "type": "address"
        }
      ],
      "stateMutability": "view",
      "type": "function"
    },
    {
      "inputs": [],
      "name": "renounceOwnership",
      "outputs": [],
      "stateMutability": "nonpayable",
      "type": "function"
    },
    {
      "inputs": [
        {
          "components": [
            {
              "components": [
                {
                  "internalType": "uint256",
                  "name": "attestedSlot",
                  "type": "uint256"
                },
                {
                  "internalType": "uint256",
                  "name": "finalizedSlot",
                  "type": "uint256"
                },
                {
                  "internalType": "uint256",
                  "name": "participation",
                  "type": "uint256"
                },
                {
                  "internalType": "bytes32",
                  "name": "finalizedHeaderRoot",
                  "type": "bytes32"
                },
                {
                  "internalType": "bytes32",
                  "name": "executionStateRoot",
                  "type": "bytes32"
                },
                {
                  "components": [
                    {
                      "internalType": "bytes",
                      "name": "blob",
                      "type": "bytes"
                    },
                    {
                      "internalType": "uint256[]",
                      "name": "init_params",
                      "type": "uint256[]"
                    },
                    {
                      "internalType": "int256[][]",
                      "name": "columns_rotations",
                      "type": "int256[][]"
                    }
                  ],
                  "internalType": "struct PlaceholderProof",
                  "name": "proof",
                  "type": "tuple"
                }
              ],
              "internalType": "struct LightClientStep",
              "name": "step",
              "type": "tuple"
            },
            {
              "internalType": "bytes32",
              "name": "syncCommitteeSSZ",
              "type": "bytes32"
            },
            {
              "internalType": "bytes32",
              "name": "syncCommitteePoseidon",
              "type": "bytes32"
            },
            {
              "components": [
                {
                  "internalType": "bytes",
                  "name": "blob",
                  "type": "bytes"
                },
                {
                  "internalType": "uint256[]",
                  "name": "init_params",
                  "type": "uint256[]"
                },
                {
                  "internalType": "int256[][]",
                  "name": "columns_rotations",
                  "type": "int256[][]"
                }
              ],
              "internalType": "struct PlaceholderProof",
              "name": "proof",
              "type": "tuple"
            }
          ],
          "internalType": "struct LightClientRotate",
          "name": "update",
          "type": "tuple"
        }
      ],
      "name": "rotate",
      "outputs": [],
      "stateMutability": "nonpayable",
      "type": "function"
    },
    {
      "inputs": [
        {
          "internalType": "address",
          "name": "_layerZeroEndpoint",
          "type": "address"
        }
      ],
      "name": "setLayerZeroEndpoint",
      "outputs": [],
      "stateMutability": "nonpayable",
      "type": "function"
    },
    {
      "inputs": [
        {
          "internalType": "address",
          "name": "gateArgument",
          "type": "address"
        }
      ],
      "name": "setRotateGate",
      "outputs": [],
      "stateMutability": "nonpayable",
      "type": "function"
    },
    {
      "inputs": [
        {
          "internalType": "address",
          "name": "gateArgument",
          "type": "address"
        }
      ],
      "name": "setStepGate",
      "outputs": [],
      "stateMutability": "nonpayable",
      "type": "function"
    },
    {
      "inputs": [
        {
          "internalType": "address",
          "name": "v",
          "type": "address"
        }
      ],
      "name": "setVerifier",
      "outputs": [],
      "stateMutability": "nonpayable",
      "type": "function"
    },
    {
      "inputs": [
        {
          "internalType": "uint256",
          "name": "",
          "type": "uint256"
        }
      ],
      "name": "stateRoots",
      "outputs": [
        {
          "internalType": "bytes32",
          "name": "",
          "type": "bytes32"
        }
      ],
      "stateMutability": "view",
      "type": "function"
    },
    {
      "inputs": [
        {
          "components": [
            {
              "internalType": "uint256",
              "name": "attestedSlot",
              "type": "uint256"
            },
            {
              "internalType": "uint256",
              "name": "finalizedSlot",
              "type": "uint256"
            },
            {
              "internalType": "uint256",
              "name": "participation",
              "type": "uint256"
            },
            {
              "internalType": "bytes32",
              "name": "finalizedHeaderRoot",
              "type": "bytes32"
            },
            {
              "internalType": "bytes32",
              "name": "executionStateRoot",
              "type": "bytes32"
            },
            {
              "components": [
                {
                  "internalType": "bytes",
                  "name": "blob",
                  "type": "bytes"
                },
                {
                  "internalType": "uint256[]",
                  "name": "init_params",
                  "type": "uint256[]"
                },
                {
                  "internalType": "int256[][]",
                  "name": "columns_rotations",
                  "type": "int256[][]"
                }
              ],
              "internalType": "struct PlaceholderProof",
              "name": "proof",
              "type": "tuple"
            }
          ],
          "internalType": "struct LightClientStep",
          "name": "update",
          "type": "tuple"
        },
        {
          "internalType": "address",
          "name": "_userApplication",
          "type": "address"
        },
        {
          "internalType": "uint16",
          "name": "_sourceChainId",
          "type": "uint16"
        }
      ],
      "name": "step",
      "outputs": [],
      "stateMutability": "nonpayable",
      "type": "function"
    },
    {
      "inputs": [
        {
          "internalType": "uint256",
          "name": "",
          "type": "uint256"
        }
      ],
      "name": "syncCommitteePoseidons",
      "outputs": [
        {
          "internalType": "bytes32",
          "name": "",
          "type": "bytes32"
        }
      ],
      "stateMutability": "view",
      "type": "function"
    },
    {
      "inputs": [
        {
          "internalType": "uint256",
          "name": "",
          "type": "uint256"
        }
      ],
      "name": "timestamps",
      "outputs": [
        {
          "internalType": "uint256",
          "name": "",
          "type": "uint256"
        }
      ],
      "stateMutability": "view",
      "type": "function"
    },
    {
      "inputs": [
        {
          "internalType": "address",
          "name": "newOwner",
          "type": "address"
        }
      ],
      "name": "transferOwnership",
      "outputs": [],
      "stateMutability": "nonpayable",
      "type": "function"
    },
    {
      "inputs": [
        {
          "internalType": "address payable",
          "name": "_to",
          "type": "address"
        },
        {
          "internalType": "uint256",
          "name": "_amount",
          "type": "uint256"
        }
      ],
      "name": "withdrawFee",
      "outputs": [],
      "stateMutability": "nonpayable",
      "type": "function"
    }
  ],
  "bytecode": "0x6101406040526003805460ff60a01b1916600160a01b17905560006004553480156200002a57600080fd5b5060405162001ec938038062001ec98339810160408190526200004d91620001fd565b6200005833620000fb565b600180546001600160a01b03808f166001600160a01b031992831617909255600380548e841690831617905560028054928d1692909116919091179055608089905260a088905260c087905260e086905263ffffffff83166101005261ffff821661012052620000c985856200014b565b600580546001600160a01b0319166001600160a01b039290921691909117905550620002c69950505050505050505050565b600080546001600160a01b038381166001600160a01b0319831681178455604051919092169283917f8be0079c531659141344cd1fd0a4f28419497f9722a3daafe3b4186f6b6457e09190a35050565b600082815260096020526040902054158015906200017757506000828152600960205260409020548114155b156200018e5750506003805460ff60a01b19169055565b60008281526009602052604080822083905551829184917f783ee45e8820a8249b1456ff4a715f3bd483b1a59bdc7a49bbc316bbd67a4e2f9190a35050565b80516001600160a01b0381168114620001e557600080fd5b919050565b805161ffff81168114620001e557600080fd5b6000806000806000806000806000806000806101808d8f0312156200022157600080fd5b6200022c8d620001cd565b9b506200023c60208e01620001cd565b9a506200024c60408e01620001cd565b995060608d0151985060808d0151975060a08d0151965060c08d0151955060e08d015194506101008d015193506101208d015163ffffffff811681146200029257600080fd5b9250620002a36101408e01620001ea565b9150620002b46101608e01620001cd565b90509295989b509295989b509295989b565b60805160a05160c05160e0516101005161012051611b97620003326000396000818161039e0152610a9b015260006102bb0152600081816101c20152610ca501526000818161021b0152610ac90152600081816103eb0152610aed015260006103440152611b976000f3fe608060405234801561001057600080fd5b50600436106101735760003560e01c80638bc33af3116100de578063c5e193cd11610097578063f288246111610071578063f2882461146103e6578063f2fde38b1461040d578063f4cac30d14610420578063fd9be5221461044057600080fd5b8063c5e193cd14610386578063da4b05e714610399578063deb0b3c6146103d357600080fd5b80638bc33af3146102f25780638da5cb5b146103125780638f7dcfa31461032357806395b9783c1461032c578063a8769acb1461033f578063b34711ab1461036657600080fd5b80634f96cf28116101305780634f96cf28146102505780635437988d146102635780635553fb8e1461027657806356f90d791461028e578063715018a6146102ae57806374be2150146102b657600080fd5b806307968db114610178578063205ca226146101a85780632073ee70146101bd5780632bcccca5146101f2578063304b9071146102165780634a7324081461023d575b600080fd5b60055461018b906001600160a01b031681565b6040516001600160a01b0390911681526020015b60405180910390f35b6101bb6101b6366004611401565b610453565b005b6101e47f000000000000000000000000000000000000000000000000000000000000000081565b60405190815260200161019f565b60035461020690600160a01b900460ff1681565b604051901515815260200161019f565b6101e47f000000000000000000000000000000000000000000000000000000000000000081565b6101bb61024b366004611466565b6106a1565b6101bb61025e366004611466565b6106cb565b6101bb610271366004611466565b6106f5565b6101e461028436600461148a565b50607b9392505050565b6101e461029c3660046114ef565b60066020526000908152604090205481565b6101bb61071f565b6102dd7f000000000000000000000000000000000000000000000000000000000000000081565b60405163ffffffff909116815260200161019f565b6101e46103003660046114ef565b60076020526000908152604090205481565b6000546001600160a01b031661018b565b6101e460045481565b6101bb61033a366004611466565b610733565b6101e47f000000000000000000000000000000000000000000000000000000000000000081565b6101e46103743660046114ef565b60096020526000908152604090205481565b6101e461039436600461148a565b6107ec565b6103c07f000000000000000000000000000000000000000000000000000000000000000081565b60405161ffff909116815260200161019f565b6101bb6103e1366004611508565b61085a565b6101e47f000000000000000000000000000000000000000000000000000000000000000081565b6101bb61041b366004611466565b6108cb565b6101e461042e3660046114ef565b60086020526000908152604090205481565b6101bb61044e366004611543565b610944565b600061045e84610992565b9050833561046a610ac5565b10156104c95760405162461bcd60e51b8152602060048201526024808201527f55706461746520736c6f7420697320746f6f2066617220696e207468652066756044820152637475726560e01b60648201526084015b60405180910390fd5b6004548460200135101561052a5760405162461bcd60e51b815260206004820152602260248201527f55706461746520736c6f74206c657373207468616e2063757272656e74206865604482015261185960f21b60648201526084016104c0565b801561065357610547846020013585606001358660800135610b21565b6005546040516338dd17eb60e11b81526001600160a01b03858116600483015260009216906371ba2fd690602401602060405180830381865afa158015610592573d6000803e3d6000fd5b505050506040513d601f19601f820116820180604052508101906105b6919061156f565b6004805460009081526008602090815260408083205460069092529182902054825163704316e560e01b815261ffff891694810194909452602484019190915290880135604483015260648201529091506001600160a01b0382169063704316e590608401600060405180830381600087803b15801561063557600080fd5b505af1158015610649573d6000803e3d6000fd5b505050505061069b565b60405162461bcd60e51b815260206004820152601760248201527f4e6f7420656e6f756768207061727469636970616e747300000000000000000060448201526064016104c0565b50505050565b6106a9610bf4565b600280546001600160a01b0319166001600160a01b0392909216919091179055565b6106d3610bf4565b600380546001600160a01b0319166001600160a01b0392909216919091179055565b6106fd610bf4565b600180546001600160a01b0319166001600160a01b0392909216919091179055565b610727610bf4565b6107316000610c4e565b565b6001600160a01b0381166107895760405162461bcd60e51b815260206004820152601b60248201527f5a6b4272696467654f7261636c653a5a65726f2061646472657373000000000060448201526064016104c0565b604080516001600160a01b03831680825260208201527f9bb1ee10df65f2ea6e9b6f1911afe80df0374a7e2fa65c7786fe98398e5eda9f910160405180910390a1600580546001600160a01b0319166001600160a01b0392909216919091179055565b6040805161ffff86811682528516602082015267ffffffffffffffff8416818301526001600160a01b0383166060820152607b6080820181905291517fdaebd99ba0f67a2d7a70d027ab177cad40ce040f65a9c4d98544a5463a172ebd9181900360a00190a1949350505050565b6000610866828061158c565b61086f90611871565b90506000610885610880848061158c565b610992565b905060006108968360200151610c9e565b905060006108a582600161191a565b90506108b085610cd0565b82156108c4576108c4818660400135610e5f565b5050505050565b6108d3610bf4565b6001600160a01b0381166109385760405162461bcd60e51b815260206004820152602660248201527f4f776e61626c653a206e6577206f776e657220697320746865207a65726f206160448201526564647265737360d01b60648201526084016104c0565b61094181610c4e565b50565b61094c610bf4565b604080516001600160a01b0384168152602081018390527f66bf9186b00db666fc37aaffbb95a050c66e599e000c785c1dff0467d868f1b1910160405180910390a15050565b60008061099f8335610c9e565b60008181526009602052604081205491925003610a1c5760405162461bcd60e51b815260206004820152603560248201527f53796e6320636f6d6d697474656520666f722063757272656e7420706572696f604482015274321034b9903737ba1034b734ba34b0b634bd32b21760591b60648201526084016104c0565b600a83604001351015610a8b5760405162461bcd60e51b815260206004820152603160248201527f4c657373207468616e204d494e5f53594e435f434f4d4d49545445455f5041526044820152702a24a1a4a820a72a299039b4b3b732b21760791b60648201526084016104c0565b610a9483610edf565b505061ffff7f0000000000000000000000000000000000000000000000000000000000000000166040909101351190565b60007f0000000000000000000000000000000000000000000000000000000000000000610b127f00000000000000000000000000000000000000000000000000000000000000004261192d565b610b1c9190611956565b905090565b60008381526006602052604090205415610b5d576000838152600660205260409020548214610b58576003805460ff60a01b191690555b505050565b60008381526008602052604090205415610b98576000838152600860205260409020548114610b58576003805460ff60a01b19169055505050565b6004839055600083815260066020908152604080832085905560088252808320849055600790915280822042905551839185917ffefccbcf6acd2cac524c1cb2d70450cabbec5bc95873e927c121d2d9b7924a029190a3505050565b6000546001600160a01b031633146107315760405162461bcd60e51b815260206004820181905260248201527f4f776e61626c653a2063616c6c6572206973206e6f7420746865206f776e657260448201526064016104c0565b600080546001600160a01b038381166001600160a01b0319831681178455604051919092169283917f8be0079c531659141344cd1fd0a4f28419497f9722a3daafe3b4186f6b6457e09190a35050565b6000610cca7f000000000000000000000000000000000000000000000000000000000000000083611956565b92915050565b6000610cdf606083018361196a565b610ce890611980565b9050610cf26113b6565b602083013560005b6020811015610d5057610d0f6101008361198c565b83610d1b83601f61192d565b60418110610d2b57610d2b6119a0565b6020020152610d3c61010083611956565b915080610d48816119b6565b915050610cfa565b506000610d5d858061158c565b60600135905060005b6020811015610dbc57610d7b6101008361198c565b84610d8783604061192d565b60418110610d9757610d976119a0565b6020020152610da861010083611956565b915080610db4816119b6565b915050610d66565b50610dca604086013561126e565b6104008401526001548451602086015160408088015160025491516320702f5760e01b81526001600160a01b03958616956320702f5795610e15959094909392911690600401611a6f565b602060405180830381865afa158015610e32573d6000803e3d6000fd5b505050506040513d601f19601f82011682018060405250810190610e569190611b14565b6108c457600080fd5b60008281526009602052604090205415801590610e8a57506000828152600960205260409020548114155b15610ea05750506003805460ff60a01b19169055565b60008281526009602052604080822083905551829184917f783ee45e8820a8249b1456ff4a715f3bd483b1a59bdc7a49bbc316bbd67a4e2f9190a35050565b6000610eeb823561126e565b90506000610efc836020013561126e565b90506000610f0d846040013561126e565b90506000610f1b8535610c9e565b600081815260096020908152604080832054815192830189905290820187905292935060029060600160408051601f1981840301815290829052610f5e91611b36565b602060405180830381855afa158015610f7b573d6000803e3d6000fd5b5050506040513d601f19601f82011682018060405250810190610f9e9190611b48565b90506002818860600135604051602001610fc2929190918252602082015260400190565b60408051601f1981840301815290829052610fdc91611b36565b602060405180830381855afa158015610ff9573d6000803e3d6000fd5b5050506040513d601f19601f8201168201806040525081019061101c9190611b48565b90506002818560405160200161103c929190918252602082015260400190565b60408051601f198184030181529082905261105691611b36565b602060405180830381855afa158015611073573d6000803e3d6000fd5b5050506040513d601f19601f820116820180604052508101906110969190611b48565b905060028188608001356040516020016110ba929190918252602082015260400190565b60408051601f19818403018152908290526110d491611b36565b602060405180830381855afa1580156110f1573d6000803e3d6000fd5b5050506040513d601f19601f820116820180604052508101906111149190611b48565b905060028183604051602001611134929190918252602082015260400190565b60408051601f198184030181529082905261114e91611b36565b602060405180830381855afa15801561116b573d6000803e3d6000fd5b5050506040513d601f19601f8201168201806040525081019061118e9190611b48565b9050600061119b8261126e565b90506111ac6001600160fd1b61192d565b1660006111bc60a08a018a61196a565b6111c590611980565b60408051602080820183528582526001548451918501518486015160035495516320702f5760e01b815296975093956001600160a01b03928316956320702f579561121895949092911690600401611a6f565b602060405180830381865afa158015611235573d6000803e3d6000fd5b505050506040513d601f19601f820116820180604052508101906112599190611b14565b61126257600080fd5b50505050505050505050565b60006008827eff00ff00ff00ff00ff00ff00ff00ff00ff00ff00ff00ff00ff00ff00ff00ff16901b6008837fff00ff00ff00ff00ff00ff00ff00ff00ff00ff00ff00ff00ff00ff00ff00ff0016901c1791506010827dffff0000ffff0000ffff0000ffff0000ffff0000ffff0000ffff0000ffff16901b6010837fffff0000ffff0000ffff0000ffff0000ffff0000ffff0000ffff0000ffff000016901c1791506020827bffffffff00000000ffffffff00000000ffffffff00000000ffffffff16901b6020837fffffffff00000000ffffffff00000000ffffffff00000000ffffffff0000000016901c17915060408277ffffffffffffffff0000000000000000ffffffffffffffff16901b60408377ffffffffffffffff0000000000000000ffffffffffffffff1916901c179150608082901b608083901c1791508160001b9050919050565b6040518061082001604052806041906020820280368337509192915050565b6001600160a01b038116811461094157600080fd5b803561ffff811681146113fc57600080fd5b919050565b60008060006060848603121561141657600080fd5b833567ffffffffffffffff81111561142d57600080fd5b840160c0818703121561143f57600080fd5b9250602084013561144f816113d5565b915061145d604085016113ea565b90509250925092565b60006020828403121561147857600080fd5b8135611483816113d5565b9392505050565b600080600080608085870312156114a057600080fd5b6114a9856113ea565b93506114b7602086016113ea565b9250604085013567ffffffffffffffff811681146114d457600080fd5b915060608501356114e4816113d5565b939692955090935050565b60006020828403121561150157600080fd5b5035919050565b60006020828403121561151a57600080fd5b813567ffffffffffffffff81111561153157600080fd5b82016080818503121561148357600080fd5b6000806040838503121561155657600080fd5b8235611561816113d5565b946020939093013593505050565b60006020828403121561158157600080fd5b8151611483816113d5565b6000823560be198336030181126115a257600080fd5b9190910192915050565b634e487b7160e01b600052604160045260246000fd5b6040516060810167ffffffffffffffff811182821017156115e5576115e56115ac565b60405290565b604051601f8201601f1916810167ffffffffffffffff81118282101715611614576116146115ac565b604052919050565b600067ffffffffffffffff821115611636576116366115ac565b5060051b60200190565b600082601f83011261165157600080fd5b813560206116666116618361161c565b6115eb565b82815260059290921b8401810191818101908684111561168557600080fd5b8286015b848110156116a05780358352918301918301611689565b509695505050505050565b600082601f8301126116bc57600080fd5b813560206116cc6116618361161c565b828152600592831b85018201928282019190878511156116eb57600080fd5b8387015b8581101561177f57803567ffffffffffffffff81111561170f5760008081fd5b8801603f81018a136117215760008081fd5b8581013560406117336116618361161c565b82815291851b8301810191888101908d8411156117505760008081fd5b938201935b8385101561176e57843582529389019390890190611755565b8852505050938501935084016116ef565b5090979650505050505050565b60006060828403121561179e57600080fd5b6117a66115c2565b9050813567ffffffffffffffff808211156117c057600080fd5b818401915084601f8301126117d457600080fd5b81356020828211156117e8576117e86115ac565b6117fa601f8301601f191682016115eb565b828152878284870101111561180e57600080fd5b8282860183830137600081840183015285528581013593508284111561183357600080fd5b61183f87858801611640565b9085015250604084013591508082111561185857600080fd5b50611865848285016116ab565b60408301525092915050565b600060c0823603121561188357600080fd5b60405160c0810167ffffffffffffffff82821081831117156118a7576118a76115ac565b81604052843583526020850135602084015260408501356040840152606085013560608401526080850135608084015260a08501359150808211156118eb57600080fd5b506118f83682860161178c565b60a08301525092915050565b634e487b7160e01b600052601160045260246000fd5b80820180821115610cca57610cca611904565b81810381811115610cca57610cca611904565b634e487b7160e01b600052601260045260246000fd5b60008261196557611965611940565b500490565b60008235605e198336030181126115a257600080fd5b6000610cca368361178c565b60008261199b5761199b611940565b500690565b634e487b7160e01b600052603260045260246000fd5b6000600182016119c8576119c8611904565b5060010190565b60005b838110156119ea5781810151838201526020016119d2565b50506000910152565b600081518084526020808501808196508360051b810191508286016000805b86811015611a61578385038a52825180518087529087019087870190845b81811015611a4c57835183529289019291890191600101611a30565b50509a87019a95505091850191600101611a12565b509298975050505050505050565b60808152600085518060808401526020611a8f8260a08601838b016119cf565b60a0601f19601f9390930192909216840184810383018583015287519281018390528782019260009160c001905b80831015611add5784518252938301936001929092019190830190611abd565b508581036040870152611af081896119f3565b945050505050611b0b60608301846001600160a01b03169052565b95945050505050565b600060208284031215611b2657600080fd5b8151801515811461148357600080fd5b600082516115a28184602087016119cf565b600060208284031215611b5a57600080fd5b505191905056fea26469706673582212201a09991dd8b1d5d5072a81e9b604ff38f5a8115c8179d0de8e717905c050bcf264736f6c63430008100033",
  "linkReferences": {},
  "deployedLinkReferences": {}
}